:020000040800F2
:100000000050002021020008270200082B020008EF
:100010009D020008A1020008E9020008000000009B
:100020000000000000000000000000003103000894
:10003000350300080000000039030008ED0C00083B
:100040004D0300084D0300084D0300084D03000850
:100050004D0300084D030008790B00084D0300080C
:100060004D0300084D0300084D0300084D03000830
:100070004D0300084D0300084D0300084D03000820
:100080004D0300084D0300084D0300084D03000810
:100090004D0300084D0300084D0300084D03000800
:1000A0004D0300084D0300084D0300084D030008F0
:1000B0004D0300084D0300084D0300084D030008E0
:1000C0004D0300084D0300084D0300084D030008D0
:1000D0004D0300084D0300084D0300084D030008C0
:1000E0004D0300084D0300084D0300080000000008
:1000F0000000000000000000000000000000000000
:1001000000000000000000005FF808F100B583B0B7
:1001100000F0AAF9304B314A1360314A1360314B79
:10012000314A32498B4204D21168196004330432D7
:10013000F7E72A4B1A682E4B9A4200D0FEE7284B6D
:100140001A682C4B9A42F9D1234B2B4A13602B4A45
:1001500013602B4B02E000221A600433294A9342B9
:10016000F9D3254B1B6813B9244B1B6803B1FEE779
:1001700000F086F9694601A800F022F9224C234BD1
:10018000E41AA4100025AC4214DC214C214BE41AE3
:10019000A4100025AC4213DC0099019800F012FF76
:1001A00005461D4C1D4BE41AA410002C0EDC2846FD
:1001B00000F0E2F8154B53F8253098470135E2E797
:1001C000144B53F8253098470135E3E7013C134BB6
:1001D00053F824309847E8E7BABADECA0000002096
:1001E00084000020000000201CBD000888000020C2
:1001F000785634123254769888000020100200207D
:10020000880000201402002078030008780300080A
:1002100078030008780300087803000878030008D2
:1002200008B5FFF773FF00BEFEE71EF0040F0CBF1A
:10023000EFF30880EFF309807146414A10472DE93A
:10024000F04182B004468846124B5E6B9F6B9D6AFC
:100250001B6B13F0020F03D00E4BDB6A002B0CDB81
:100260000D4800F0B5F8CDF800803B4632462946EF
:10027000204600F009F900BEFEE74BF6AB6100F046
:100280007DF90028ECD0034B4FF00042DA6202B057
:10029000BDE8F08100ED00E0A41B000800BEFEE711
:1002A0001EF0040F0CBFEFF30880EFF309807146D6
:1002B000244A10472DE9F04182B004468846084B95
:1002C0005E6B9F6B9D6A074800F082F8CDF8008056
:1002D0003B4632462946204600F0D6F800BEFEE7EF
:1002E00000ED00E0B41B00081EF0040F0CBFEFF39C
:1002F0000880EFF309807146134A10472DE9F04159
:1003000082B004468846084B5E6B9F6B9D6A074827
:1003100000F05EF8CDF800803B4632462946204684
:1003200000F0B2F800BEFEE700ED00E0C01B0008E0
:1003300000BEFEE700BEFEE700BEFEE7704700001D
:100340003F020008B5020008FD02000800BEFEE7FB
:100350001CBD000800000020880000201CBD000813
:1003600000000000000000008800002014020020AF
:08037000000000000000000085
:10037800FEE7000008B503460C4A12685AB10B4A5A
:100388001068033323F003030344094A934206D851
:10039800064A136008BD054A06491160EFE700F0F8
:1003A8003FFF0C2303604FF0FF30F3E78C00002081
:1003B800004C00201402002001230360014B0B6055
:1003C800704700BF040000200FB400B583B004AB31
:1003D80053F8042B01938021064800F053FF0028AE
:1003E80003DD0146034800F037F803B05DF804EB7D
:1003F80004B07047940000202DE9F04385B004460E
:100408000F4643560BB10E461EE0042528462146EA
:10041800ABBE0446384605B0BDE8F08314F9011BAD
:1004280004AA1A4402F8101C0133AB42F6D304AAFA
:100438001344002203F8102C4FF00408E946404604
:100448004946ABBE8046761B002EE3D03546102EBB
:1004580028BF10250023E8E708B5FFF7CDFF08BD42
:1004680008B500F0FDF8024A024B9A6008BD00BFCB
:100478000000000800ED00E008B500F019F908BD1B
:10048800F8B504460D4617461E462748FFF79CFF59
:1004980021682648FFF798FF61682548FFF794FF11
:1004A800A1682448FFF790FFE1682348FFF78CFF15
:1004B80021692248FFF788FF61692148FFF784FF17
:1004C800A1692048FFF780FFE1691F48FFF77CFF1B
:1004D8001E48FFF779FF29461D48FFF775FF1D4C99
:1004E800E16A1D48FFF770FF216B1C48FFF76CFF9E
:1004F800E16B1B48FFF768FF15F0800F0AD115F470
:10050800004F0CD11748FFF75FFF06991648FFF711
:100518005BFFF8BD39461548FFF756FFEFE7314650
:100528001348FFF751FFEDE7881A0008981A0008EA
:10053800A81A0008B81A0008C81A0008D81A00082B
:10054800E81A0008F81A0008081B0008181B000819
:10055800241B000800ED00E0341B0008441B0008C1
:10056800541B0008841B00088C1B0008641B00082F
:10057800741B000883691A888A4201D000207047DA
:100588000268033A012A03D80233836101207047C5
:100598000020704782B00023019300932C4A13680F
:1005A80043F4803313602A4B1B6803F40033009331
:1005B800019B01330193009B1BB9019BB3F5A06F0D
:1005C800F1D1234B1B6813F4003F06D0012300939D
:1005D800009B012B04D002B0704700230093F7E77B
:1005E8001C4B1A6842F010021A601A6822F00302C3
:1005F8001A601A6842F002021A60A3F580535A681A
:100608005A605A685A605A6842F480625A605A6856
:1006180022F47C125A605A6842F4E8125A601A6846
:1006280042F080721A600A4B1B6813F0007FFAD000
:10063800074B5A6822F003025A605A6842F00202D5
:100648005A60034B5B6803F00C03082BF9D1C2E72F
:10065800001002400020024008B5FFF79BFF08BDCC
:1006680008B5104B1A6842F001021A6059680E4A20
:100678000A405A601A6822F0847222F480321A60A2
:100688001A6822F480221A605A6822F4FE025A601C
:100698004FF41F029A60FFF7DFFF044B4FF0006230
:1006A8009A6008BD001002400000FFF800ED00E06D
:1006B8001F4B5B6803F00C03042B15D0082B17D0D5
:1006C8001BB11C4B1C4A1A6002E01A4B1A4A1A60EA
:1006D800174B5B68C3F30313184AD35CDAB21549A6
:1006E8000B68D3400B607047124B134A1A60EFE750
:1006F8000F4A53685268C3F38343023312F4803FAE
:100708000AD00B4A526812F4003F0BD00C4A02FB85
:1007180003F3084A1360DBE7094A02FB03F3054ABF
:100728001360D5E7044A02FB03F3024A1360CFE7DC
:10073800001002401C00002000127A000C0000206B
:1007480000093D0010B5044600220821012000F0F0
:1007580075F900220921012000F070F922460121D3
:10076800084600F0B5F901220A21104600F066F9A2
:100778004FF4FA6000F07AFA00220A21012000F012
:100788005DF910BD10B5044601220821104600F09D
:1007980055F900220921012000F050F922460121D3
:1007A800084600F095F901220A21104600F046F9A2
:1007B8004FF4FA6000F05AFA00220A21012000F0F2
:1007C8003DF910BD38B50546002408E0C0B2FFF772
:1007D800D9FF0134E4B24FF4FA6000F047FA285721
:1007E8000028F3D138BD08B508B1012804D081F03C
:1007F8008000FFF7A7FF08BD4031C9B2F7E790F9BD
:10080800003091F9002002700B70704770B50446F3
:10081800084607E0451C561EA1182044FFF7EFFFC5
:10082800324628469042F5DB204670BD931E1E2BAB
:1008380028D870B5C4B2002505E030334B550135D2
:1008480096FBF2F3DCB254B1264694FBF2F302FBBA
:100858001343092BF1DD37334B550135F0E715B953
:1008680030234B550135002806DB08460021415549
:100878006A1EFFF7CBFF70BD0A2AF6D12D234B5510
:100888000135F2E70846704730B583B0054608469B
:100898001146FFF7A8FF0023ADF804308DF80630A5
:1008A80020228DF8042006E002AA1A44202102F82A
:1008B800041C0133DBB2022BF6D90A2201A928460F
:1008C800FFF7B4FF002404E0FFF75CFF0FE00134FA
:1008D800E4B2022C11D802AB234413F8040CA0F1A3
:1008E8003003DBB2092BEFD92020FFF74BFF01358E
:1008F800B5F57A7FEBD30025E9E703B030BD08B53D
:1009080002220321002000F025F802220421002001
:1009180000F020F802220821002000F01BF8022233
:100928000921002000F016F802220A21002000F018
:1009380011F802220B21002000F00CF802220C21F1
:10094800002000F007F802220D21002000F002F834
:1009580008BD000010B4012824D018B1022841D0E5
:1009680010BC7047072910D90F29F9D8A1F108043C
:10097800E4B2A4000F23A3402A48016821EA030334
:1009880002FA04F119430160EAE789000F2303FA28
:1009980001F0254C236823EA000302FA01F1194308
:1009A8002160DDE7072910D90F29D9D8A1F108005E
:1009B800C0B280000F2383401C4C216821EA030346
:1009C80002FA00F119432160CAE789000F2303FAEC
:1009D80001F0174C236823EA000302FA01F11943D6
:1009E8002160BDE7072910D90F29B9D8A1F108035B
:1009F800DBB29B000F2098400E4C216821EA0000D2
:100A080002FA03F101432160AAE789000F2303FAE0
:100A180001F0094C236823EA000302FA01F11943A3
:100A280021609DE70408014000080140040C0140D2
:100A3800000C01400410014000100140012818D0AA
:100A480010B1022829D07047012A0AD0002A2FD1D4
:100A5800012303FA01F11B4A136823EA0103136017
:100A68007047012303FA01F1164A13680B43136018
:100A78007047012A09D0DAB9012303FA01F1124AB1
:100A8800136823EA010313607047012303FA01F195
:100A98000D4A13680B4313607047012A09D03AB90D
:100AA800012303FA01F1094A136823EA01031360D9
:100AB8007047012303FA01F1044A13680B431360DA
:100AC800704700BF0C0801400C0C01400C1001409D
:100AD800012814D010B1022821D0704711B1012982
:100AE80008D0704716490B6803F47F43D2B21A4303
:100AF8000A60704712490B781A430A60704731B18F
:100B08000129EED10F490B781A430A6070470D4945
:100B18000B6803F47F43D2B21A430A60704731B1BD
:100B28000129DED1084B19780A431A60D9E706492A
:100B38000B6803F47F43D2B21A430A60704700BFC0
:100B48000C0801400C0C01400C100140044B1A68C1
:100B580042F001021A60DA6842F00102DA60704776
:100B680000040140014B1860704700BF14010020C9
:100B780008B5024B1B68984708BD00BF1401002048
:100B8800014B024A1A6070470CED00E00005FA05B7
:100B98001F2809D93B2806D82038C0B2012303FAF8
:100BA80000F0044B18607047012303FA00F0024B71
:100BB8001860704704E100E000E100E0034B4FF4E7
:100BC80080321A60043301221A6070470010024014
:100BD8001F291CD801280BD010B1022810D070474B
:100BE800012303FA01F10A4A13680B4313607047A3
:100BF800012303FA01F1074A13680B431360704796
:100C0800012303FA01F1044A13680B431360704788
:100C1800141002401C10024018100240024B40F20F
:100C280047321A60704700BF0030014038B50546AA
:100C38000C46002211461046FFF700FF074BDD6007
:100C4800064B9B6813F0800FFAD1044BDB682370C6
:100C5800012200210846FFF7F1FE38BD00300140AF
:100C6800014B00221A60704710E000E0094B586001
:100C78001A6842F001021A60064B1B6813F4803FA1
:100C8800FAD0044B1A6842F001021A6000225A6036
:100C98009A60704710E000E010B40B4B1A6822F01D
:100CA80001021A6000249C6058601A6842F0010230
:100CB8001A60064A1160064A14701A6842F0020265
:100CC8001A6010BC704700BF10E000E01801002057
:100CD8001C010020024B58689B68C01A704700BF6F
:100CE80010E000E008B50A4B1B785BB9094B1A689D
:100CF80022F002021A601A6842F001021A60002209
:100D08005A609A60044B1B689847024B1B6808BDE1
:100D18001C01002010E000E01801002010B582B08E
:100D28000446012202210020FFF788FE0DF1070189
:100D38002046FFF77BFF02B010BD10B582B0044615
:100D4800002202211046FFF779FE0DF10701204627
:100D5800FFF76CFF02B010BD08B501221146002054
:100D6800FFF76CFE6420FFF781FF00220121104687
:100D7800FFF764FE0120FFF779FF012211460020EA
:100D8800FFF75CFE6420FFF771FF00220121104687
:100D9800FFF754FE6420FFF769FF01221146002087
:100DA800FFF74CFE0948FFF761FF1120FFF7C5FF69
:100DB8000748FFF75BFF3A20FFF7BFFF0520FFF763
:100DC800ADFF2920FFF7B9FF08BD00BFC0D401005F
:100DD800F049020038B505462A20FFF7AEFF00208B
:100DE800FFF79CFF0020FFF799FF0020FFF796FF11
:100DF8007F20FFF793FF2B20FFF79FFF0020FFF7CF
:100E08008DFF0020FFF78AFF0020FFF787FF9F2054
:100E1800FFF784FF2C20FFF790FF00240AE035F845
:100E28001400000AFFF77AFF15F81400FFF776FFA1
:100E38000134A4B2B4F5A04FF1D338BD1F4B002242
:100E48001A701F4B1A6842F20F739A422BD91C4B27
:100E58001A6843F2B0639A4225D8002309E00122B8
:100E680002FA01F11548027822EA01020270013300
:100E7800DBB2072B17D8194603F11100104A52F8B4
:100E88002020B2F5FA6FEAD30D4A52F8200040F656
:100E9800FC029042E3D801229A40084801781143A5
:100EA800C9B20170E3E70023064A1370044A1360CD
:100EB800054A1370014B1878704700BFE8010020FD
:100EC80020010020EA010020E901002038B50E4B7E
:100ED8001B7883B10D4C2578EDB2FFF7FBFE0C4B68
:100EE80043F825000B490C48FFF7D6FE2378013359
:100EF800DBB2237038BD07490748FFF7CDFE024B28
:100F080001221A70F6E700BFEA010020E90100207B
:100F180020010020450E000840420F0038B5044665
:100F28001048FFF74FFC042200210D460846FFF742
:100F3800ABFC0D48FFF746FC082201212846FFF7C5
:100F4800A3FC04EB4404094B1C5D05212846FFF76C
:100F58004AFC0748FFF736FC0A2229462046FFF7D5
:100F680093FC38BDECBB0008F0BB00080002002071
:100F7800F8BB000838B5012413E00C4B1D5D0C4884
:100F8800FFF720FC042200212046FFF77DFC0948DA
:100F9800FFF718FC062201212846FFF775FC0134EB
:100FA800E4B2054B1B78A342E7D238BDEC01002020
:100FB800ECBB0008E0BC0008EB01002038B5FFF7E7
:100FC800FDFD02210846FFF703FE03210220FFF77B
:100FD800FFFD0C210220FFF7FBFD0422002108463B
:100FE800FFF7B8FC7A48FFF7BDFDFFF7AFFDFFF745
:100FF800C7FD0620FFF7CCFDFFF732FE02220121D4
:101008000020FFF7A7FC022211460020FFF7A2FCF0
:10101800092205210020FFF79DFC09220721002055
:10102800FFF798FC022200210120FFF793FC02221F
:1010380001210846FFF78EFC022211460120FFF726
:1010480089FC022203210120FFF784FC02220421EB
:101058000120FFF77FFC022205210120FFF77AFC1F
:10106800022206210120FFF775FC02220721012038
:10107800FFF770FC022208210120FFF76BFC022217
:1010880009210120FFF766FC02220A210120FFF74F
:1010980061FC02220B210120FFF75CFCFFF72FFC0B
:1010A800FFF7BCFDFFF758FE002520E00134494852
:1010B800FFF788FB484B5B6913F0010FFAD0464AEB
:1010C800536943F001035361FFF7B8FE4348FFF744
:1010D80079FB4348FFF776FB4248FFF773FB42482A
:1010E800FFF770FB022CE1D94048FFF76BFB022D9C
:1010F8006AD83F48FFF766FB00210120FFF773FB22
:101108003C48FFF75FFB3C48FFF7B0FD3B48FFF763
:1011180059FB00210120FFF766FB2F4B5B6913F099
:10112800010FFAD02C4A536943F001035361FFF7CA
:1011380085FE0546012805D0022843D02B48FFF735
:1011480041FBD1E70024CDE72D48FFF73BFB224BBD
:101158005B6913F0010FFAD01F4A536943F001038A
:101168005361FFF76BFEFFF7D9FE022CBCD8254868
:10117800FFF730FE2448FFF725FB00210120FFF789
:1011880032FB2248FFF71EFB2148FFF76FFD21487D
:10119800FFF718FB104B5B6913F0010FFAD00E4AEA
:1011A800536943F001035361FFF748FE04460128E1
:1011B800CAD0022803D01848FFF704FBD5E7FFF789
:1011C800D9FED2E70024D0E71448FFF7FBFA38BD70
:1011D800D50E00083CBC00080004014048BC0008CB
:1011E80054BC00085CBC000868BC0008BCBC000813
:1011F80000BC000818BC000800093D002CBC000811
:10120800A0BC0008D01B000878BC000888BC0008F7
:1012180080841E0098BC0008ACBC0008CCBC000848
:10122800014B1868704700BF2000002030B5141E1D
:1012380005469BB0184605DA8B234FF0FF302B602C
:101248001BB030BD4FF40273ADF80C300CBF234611
:1012580004F1FF33029305934FF6FF730091049155
:10126800ADF80E3002461E9B6946284600F072F81B
:10127800431CBCBF8B232B60002CE1D00022009BB9
:101288001A70DDE707B5009313460A46014603487E
:101298000068FFF7CBFF03B05DF804FB20000020D7
:1012A8002DE9F0478E6882469E420C469046994644
:1012B80037D88A8912F4906F31D0022325680969DA
:1012C8006F1A656905EB450595FBF3F509F101030F
:1012D8003B449D4238BF1D46530530D5294600F092
:1012E80035FB064650B90C234FF0FF30CAF80030E2
:1012F800A38943F04003A381BDE8F0873A462169FA
:1013080000F0B4FAA38923F4906343F08003A38127
:1013180026613E4426604E466561ED1BA5604E453C
:1013280000D94E4632464146206800F0AAFAA36822
:1013380000209B1BA36023681E442660DCE72A4626
:1013480000F05EFB06460028E2D12169504600F015
:10135800B1FAC8E72DE9F04F9DB003938B89804619
:101368001D060C4616460FD50B696BB9402100F0D7
:10137800EDFA2060206128B90C23C8F800304FF03E
:10138800FF30C7E0402363610023099320238DF8D1
:10139800293030234FF0010B8DF82A3037463D466F
:1013A80015F8013B0BB1252B3ED1B7EB060A0BD044
:1013B8005346324621464046FFF772FF013000F09F
:1013C800A480099B534409933B78002B00F09D802F
:1013D80000234FF0FF32CDE90523049307938DF8DE
:1013E80053301A932F46052217F8011B4F4800F077
:1013F8002FFA049BD0B9D90644BF20228DF8532078
:101408001A0744BF2B228DF853202A782A2A15D090
:101418002F4600200A25079A394611F8013B303B30
:10142800092B4DD9B8B10FE02F46B8E73F4A3D46E2
:10143800801A0BFA00F018430490D3E7039A111DA1
:1014480012680391002A01DB079204E0524243F03C
:101458000203079204933B782E2B0CD17B782A2B1E
:1014680033D1039B02371A1D1B680392002BB8BFA8
:101478004FF0FF3305932E4D03223978284600F0AC
:10148800E7F938B14023401B03FA00F0049B013709
:10149800034304933978062226487E1C8DF82810C9
:1014A80000F0D6F9002838D0234B13BB039B073331
:1014B80023F0070308330393099B4B4409936DE713
:1014C80005FB023201200F46A6E700230A2519462C
:1014D80001370593384610F8012B303A092A03D909
:1014E800002BC8D00591C6E705FB0121012307465B
:1014F800F0E703AB00932246104B04A94046AFF334
:101508000080B0F1FF3F8146D6D1A3895B063FF545
:1015180036AF09981DB0BDE8F08F03AB00932246A3
:10152800064B04A9404600F081F8EAE7E8BC000849
:10153800EEBC0008F2BC000800000000A912000878
:101548002DE9F04791461F468A680B690646934283
:10155800B8BF1346C9F8003091F843200C46DDF8AF
:10156800208012B10133C9F800302368990642BFC0
:10157800D9F800300233C9F80030256815F006059F
:1015880007D104F1190AE368D9F800209B1AAB4285
:1015980029DC94F843302268003318BF01239206EF
:1015A8002ED404F1430239463046C047013021D0D9
:1015B8002368E56803F00603042B18BF0025D9F853
:1015C80000204FF0000908BFAD1AA368226908BFC0
:1015D80025EAE5759342C4BF9B1AED181A344D45A8
:1015E8001AD1002008E00123524639463046C04748
:1015F800013003D14FF0FF30BDE8F0870135C2E775
:101608003020E11881F843005A1C94F84510224410
:10161800023382F84310C4E7012322463946304694
:10162800C0470130E6D009F10109D8E72DE9F043B8
:1016380001F1430C0C46097E85B06E291746064613
:1016480098460C9A00F0B38022D8632936D00AD87D
:10165800002900F0B980582900F0838004F1420580
:1016680084F8421032E0642901D06929F6D1206853
:101678001368050603F104012AD51B681160002BC5
:1016880003DA2D225B4284F843206F480A2239E0AE
:10169800732900F09D8008D86F2920D07029DDD1EA
:1016A800236843F02003236003E0752917D07829C5
:1016B800D4D17823654884F8453055E0136804F19F
:1016C8004205191D1B68116084F8423001238CE023
:1016D8001B6810F0400F116018BF1BB2CFE71368EA
:1016E8002568181D1060280601D51B6802E06806E9
:1016F800FBD51B886F2914BF0A22082252480021F3
:1017080084F843106568002DA560C0F295802168B3
:1017180021F004012160002B3DD1002D40F08E8086
:101728006546082A0BD12368DB0708D52369626858
:101738009A42DEBF302305F8013C05F1FF35ACEBDA
:1017480005032361CDF800803B4603AA21463046B5
:10175800FFF7F6FE01304DD14FF0FF3005B0BDE880
:10176800F083394884F84510136821681D1D1B68EB
:1017780015600A060BD5CA0744BF41F02001216055
:101788001BB9226822F0200222601022B7E74D061A
:1017980048BF9BB2EFE76546B3FBF2F102FB11339A
:1017A800C35C05F8013D0B460029F5D1B9E713687C
:1017B8002568181D6169106028061B6801D5196025
:1017C80002E06A06FBD51980002365462361B9E764
:1017D8001368191D11601D6862680021284600F011
:1017E80037F808B1401B606063682361002384F800
:1017F8004330A7E723692A4639463046C0470130B7
:10180800AAD023689B0713D4E068039B9842B8BF0B
:101818001846A3E701234A4639463046C0470130F7
:101828009AD00135E368039A9B1AAB42F2DCEBE7E6
:10183800002504F11909F5E7002BACD1037804F170
:10184800420584F842306CE7F9BC00080ABD00087C
:1018580010B5C9B202449042034601D1002303E007
:101868001C7801308C42F6D1184610BD10B5431EC5
:101878000A44914200D110BD11F8014B03F8014F01
:10188800F7E7884210B501EB020307D8421E9942D8
:101898000AD011F8014B02F8014FF8E78342F5D955
:1018A8008118D21AD34200D110BD13F8014D01F8A6
:1018B800014DF7E738B50546002943D051F8043CF7
:1018C8000C1F002BB8BFE41800F0D0F81E4A1368AC
:1018D800104633B9636014602846BDE8384000F00C
:1018E800C6B8A3420BD921686218934201BF1A688F
:1018F8005B685218226063600460EDE713465A681B
:101908000AB1A242FAD919685818A0420BD1206826
:101918000144581882421960DED1106852680144A7
:1019280019605A60D8E702D90C232B60D4E72068E5
:1019380021188A4201BF1168526809182160626043
:101948005C60C9E738BD00BFF401002070B5CD1C4C
:1019580025F0030508350C2D38BF0C25002D06464B
:1019680001DBA94203D90C233360002070BD00F0CD
:101978007DF8214A1468214691B9204C23681BB987
:10198800304600F063F820602946304600F05EF8E3
:10199800431C24D10C233046336000F068F8E4E798
:1019A8000B685B1B18D40B2B0FD90B60CC18CD50D0
:1019B800304600F05CF804F10B00231D20F007000E
:1019C800C31AD3D05A42E250D0E74B688C4216BFB4
:1019D800636013600C46EBE70C464968CCE7C41C0F
:1019E80024F00304A04205D0211A304600F02EF856
:1019F8000130CFD02560DBE7F4010020F80100209A
:101A0800F8B5074614460E4621B9BDE8F840114618
:101A1800FFF79CBF22B9FFF74DFF25462846F8BDC2
:101A280000F026F8A0420FD221463846FFF78EFF75
:101A380005460028F2D031462246FFF717FF314607
:101A48003846FFF737FFE9E73546E7E738B50023BB
:101A5800054C054608462360FEF78CFC431C02D162
:101A6800236803B12B6038BDFC0100207047704724
:101A780051F8043C181F002BBCBF0B58C018704706
:101A8800537461636B206672616D653A0A000000E9
:101A9800205230203D2020253038580A0000000010
:101AA800205231203D2020253038580A00000000FF
:101AB800205232203D2020253038580A00000000EE
:101AC800205233203D2020253038580A00000000DD
:101AD80020523132203D20253038580A00000000BD
:101AE800204C52203D2020253038580A00000000A4
:101AF800205043203D2020253038580A000000009F
:101B080020505352203D20253038580A000000004C
:101B18004653522F4641523A0A000000204346538A
:101B280052203D2020253038580A000020484653CE
:101B380052203D2020253038580A000020444653C2
:101B480052203D2020253038580A000020414653B5
:101B580052203D2020253038580A0000204D4D469F
:101B68004152203D20253038580A00002042464185
:101B780052203D2020253038580A00004D697363F3
:101B88000A000000204C522F4558435F52455455D7
:101B9800524E3D20253038580A0000005B486172DB
:101BA800644661756C745D0A000000005B427573E1
:101BB8004661756C745D0A005B55736167654661C3
:101BC800756C745D0A00000084108410A4108410E1
:101BD8008410A51064108410A410A410A4108410FC
:101BE800841064088410A410841085108410841054
:101BF80084108410A510640884088410A51084102B
:101C080084086408A51084088410A4102308A4106C
:101C1800A41084106410841084108410841063103D
:101C28008410A410A41063088410841084108410F5
:101C380084108410841084108410841084108410FC
:101C480084108410841084108410841084108410EC
:101C580084108410841084108510A51064088410E2
:101C6800A5102308C51884108410A410A4106408B3
:101C7800A410A41064088410A410640884108410AC
:101C880084088410841084108410841084108410B4
:101C98008410A41084108410A41063088410A41065
:101CA80064108410C518841084106308841084108C
:101CB800A410641084108410A41084106410A4105C
:101CC80084108410A41084108410A410841084102C
:101CD800641084102308C518640864084308A41015
:101CE800C518A5188410640884108410C5188410B9
:101CF800841084104308A510A51043086408A51093
:101D080084108410640884106410A510A510841031
:101D180084108410A410841084108410A410A410BB
:101D2800841084108410841084108410841084100B
:101D380084108410841084108410841084108410FB
:101D480084108410841084108410841084108410EB
:101D580084108410841084106408A5108410641002
:101D68006410E51823088410841084106308C510D3
:101D78006308A4108410A4106408C51864088408B3
:101D880084108408A5106308841084106308A410C4
:101D98004308A410630884106308A5186408841015
:101DA8004308A410630884108410A410A41084109D
:101DB8008410A5106308A5186408A410A41064086A
:101DC800A410A5106410A510640884108408841059
:101DD800A4108410C5182300A510A5108410841021
:101DE8004308A51084106308640884104308A510EC
:101DF800C5106408A410A4108408C510A5106408B0
:101E0800A5108410841084108408A410A4106308FA
:101E180084108410A410840883088410841084100B
:101E2800A41084088408A4108410841084108410DA
:101E380084108410841084108410841084108410FA
:101E480084108410841084108410841084108410EA
:101E58008410841084108410A51064088410A510C0
:101E6800840863088410A4106408A41084108410E3
:101E780083086308C4106308A4104308A410C5109D
:101E8800841084108410C5106308A5108410A51050
:101E9800A4108410C510A410A41084108410E51890
:101EA8008410A4108410A4108408A410840884103A
:101EB800A51064088410640884108410A5106408B0
:101EC8008410A4104308C510A4108408841084103A
:101ED800840883086308C41083084200A410E51826
:101EE800630884106308E51883088310831083103F
:101EF8002200831083086308A41063084200430883
:101F0800830843088308420063082200A410840859
:101F1800A4104200C51084088410A4108308630824
:101F2800A410A4108410A4108410841084108410A9
:101F380084108410841084108410841084108410F9
:101F480084108410841084108410841084108410E9
:101F58008410841084108410A5106408A4108408C8
:101F680084106308A4102200630863082200830811
:101F7800C5104308830863084200A41043082200E0
:101F880084088408430843088408630884084300D5
:101F98004308830843084308630883084300630829
:101FA8004300840863088408A410010084106308AF
:101FB80063088410430863084308430883088410AF
:101FC8008410841084088410A41084108410841051
:101FD8008410841022006F6BC93106218C526B4A21
:101FE80006216B4ACD5A67296B4A6729CC5AED5AA4
:101FF800C8312A4263086F6BD073D073A8318F6BD6
:102008006B4A0D63117C4E6B06213284F17B0D63A4
:10201800A83190736B4A43008410A410A410841054
:102028008410841084106408841084108410841030
:1020380084108410841084108410841084108410F8
:1020480084108410841084108410841084108410E8
:102058008410841084108410840884088410640810
:102068008410A4108308CC526729AC52E9394B4A32
:10207800C9394B422A42AC520A3A4729CC526B4AD8
:10208800E9398C4A0A426B4A4B4A4B4A26214B4A49
:102098006B4A2A428B4A0A3AC8312A426B4AA41030
:1020A800ED5AC9312A420A4287292A4288318C527C
:1020B800C9398C52E9396B4A6B4AAC526729A4106A
:1020C80084108308A41084088308A410841084084A
:1020D800C5182200C93990738B4A6F6B8B4A093A2D
:1020E8000D5B2A42020047218B52ED5A262101003E
:1020F800F17BED5A420083100521738CD494F17B57
:102108000942F59C0100738C77ADED5A01000D5B17
:10211800BCD6B0732200841063088308A410A410EE
:1021280064088410A410841084108410841084100F
:1021380084108410841084108410841084108410F7
:1021480084108410841084108410841084108410E7
:102158008410841084108410841084108408A410BF
:10216800841043086729F17BAC5AD17B0E63ED5A82
:10217800AC522E630E634F6B2E636B4A6F6B6F6BA3
:10218800CC5A2E6B0E636B4AF17BB07384080E63D6
:102198002A420E632E63906B6F6B4F63AC52093A01
:1021A8000D5B8B4A8C4A2E63093AB4940A3A2E6323
:1021B8004F63AC52538CF17BB073738C2A42630823
:1021C80084108308841084108410A4108410640878
:1021D800841002000E63E5180A424F6B6C4ACD5A10
:1021E800AD52AC52883188312E632A426B4A09427B
:1021F8008B52D07B87314E63738CCC52A83177AD2C
:102208004A42528CED5A52842E63738C6B4A4E6349
:10221800D8B5B0732621C518C51863086408A51079
:1022280064086408A5108410841084108410841035
:1022380084108410841084108410841084108410F6
:1022480084108410841084108410841084108410E6
:1022580084108410841084108410A51084108408BD
:102268008410830888290619A831C41842088310E5
:102278002621C518841063108410C9396B4AC51803
:102288008310E5182200A410A9318410640864089A
:10229800C518C51043088410C5188410C518A9317D
:1022A800E939A8318831EA398410A931A831EA39E5
:1022B8004721AD52E5180A4247210A420619430050
:1022C800A410A41084108408841064086408A4105E
:1022D800430047214F6302000621CD5A4721672951
:1022E80023002721C9398831B0736308A831C83160
:1022F80084108831E518738C8F6B4F63E93936A5E4
:10230800262146216B4A26212200C939E9398F73D3
:10231800AC5246210A424F63A93184106408A510C3
:1023280084108408A51084088410841084108410F4
:1023380084108410841084108410841084108410F5
:1023480084108410841084108410841084108410E5
:102358008410841084108410A51084086408A510C3
:10236800640884086308640863084208A410841099
:102378004308630884106310841043082200631024
:1023880083106308631084104308A5104308841061
:1023980063086308A5108408840864086308630850
:1023A8004308430843086308841043006308230074
:1023B8006308230064084308640843086308A410FA
:1023C80084108408A4108408841084108410841055
:1023D8008410A410A41084106408C5106408230095
:1023E8008410630822008408A51084104308430859
:1023F8006308641063084308C9398831C518C518CB
:102408002308841023006308C41001002200E51883
:10241800E51843088410A831C518A5108408640875
:102428008410851084108410841084108410841003
:1024380084108410841084108410841084108410F4
:1024480084108410841084108410841084108410E4
:102458008410841084108410841084088410A510BB
:102468008410640884088410631083108410841016
:102478008410841084108410A5186308A410841094
:10248800C51884108310841084108410841084105C
:102498008410841084108410841084108410841094
:1024A8008410841084108410841084108410841084
:1024B8008410841084108410841084108410841074
:1024C8008410841084108410840884108410640894
:1024D80084088410841084088410C510841063084C
:1024E800A41084106308A510A4108410841084100C
:1024F80084108410841084106308630843088410CF
:1025080064088410640884108410A410A410831034
:102518006308830884088408A41084108408840845
:102528008410A510841084108410841084108410E2
:1025380084108410841084108410841084108410F3
:1025480084108410841084108410841084108410E3
:102558008410841084108410A510A41084086408C2
:102568008410A51084106408C410A4108410840872
:1025780084108410841084084308A510A5106408EA
:1025880083086308C51884108408840884088408AC
:1025980084088408840884088410841084108410B3
:1025A8008410841084108410841084108410841083
:1025B8008410841084108410841084108410841073
:1025C8008410841084108410A410A410A410841003
:1025D800A410A410A41084108410A41084108408DB
:1025E800A410A4108410A4108410841084108410E3
:1025F800841084108410841084108410A410841013
:10260800C5188410A510A4106308A410A41083088A
:102618008310C410C41084088410840884088410AB
:102628008410841084108410841084108410841002
:1026380084108410841084108410841084108410F2
:1026480084108410841084108410841084108410E2
:102658008410841084108410630884088410841003
:1026680084108410841084106308830884108410F4
:102678008410841084108410A510851084106408B8
:102688008410841084108308A410A410A410A4102B
:10269800A410A410A410A410A410A410A410A41092
:1026A800A410A410A410A410A410A410A410A41082
:1026B800A410A410A410A410A410A410A410A41072
:1026C800A410A410A410A41042084208420842080A
:1026D80042084208420842084208420842084208A2
:1026E800420842084208420842084308430843088F
:1026F8004308420842084308630842086308220066
:1027080043082200430842086208220022004208C7
:10271800420842084208420842084208430843085F
:10272800430843084208430843084308430843084A
:102738004308430843084308430843084308430839
:10274800430843084308430842084208420842082D
:1027580042084208420842088310630842084308B6
:10276800430822002308430863084308430063081A
:102778006408640864084408230023006408840883
:102788008408630843006308420842084208420874
:1027980042084208420842084208420842084208E1
:1027A80042084208420842084208420842084208D1
:1027B80042084208420842084208420842084208C1
:1027C80042084208420842085ACE5ACE5ACE5ACE39
:1027D8005ACE5ACE5ACE5ACE5ACE39C65ACE5ACEDA
:1027E80039C639C65ACE39C65ACE5ACE3AC63AC66C
:1027F8003AC63AC63AC63AC639C63AC65ACE5ACE82
:102808005ACE3AC65ACE5ACE7ACE7ACE5ACE5ACE68
:1028180039C65ACE5ACE5ACE39C639C639C639C63D
:1028280039C639C639C639C63AC63AC63AC63AC6A4
:102838003AC63AC63AC63AC63AC63AC63AC63AC690
:102848003AC63AC63AC63AC639C639C639C659C664
:1028580059C659C659C639C619C639C65ACE7BCEC5
:102868005ACE3ACE3AC63ACE5BCE5BC63AC6D9B550
:1028780058A5D694748C33849594548C748C948C09
:1028880017A51ABE3AC63BC65ACE5ACE5ACE5ACE0B
:102898005ACE5ACE5ACE5ACE5ACE5ACE5ACE5ACEF0
:1028A8005ACE5ACE5ACE5ACE5ACE5ACE5ACE5ACEE0
:1028B8005ACE5ACE5ACE5ACE5ACE5ACE5ACE5ACED0
:1028C8005ACE5ACE5ACE5ACEFFFFFFFFFFFFFFFF68
:1028D800FFFFFFFFFFFFFFFFFFFFFFFFFFFFFFFF00
:1028E800FFFFFFFFFFFFFFFFFFFFFFFFFFFFFFFFF0
:1028F800FFFFFFFFFFFFFFFFFFFFFFFFFFFFFFFFE0
:10290800FFFFFFFFFFFFFFFFDFFFDFFFFFFFFFFF0F
:10291800FFFFFFFFFFFFFFFFFFFFFFFFFFFFFFFFBF
:10292800FFFFFFFFFFFFFFFFFFFFFFFFFFFFFFFFAF
:10293800FFFFFFFFFFFFFFFFFFFFFFFFFFFFFFFF9F
:10294800FFFFFFFFFFFFFFFFFFFFFFFFFFFFFFFF8F
:10295800FFFFFFFFFFFFFFFFFFFFFFFFFFFFDFFF9F
:10296800DFFFFFFFFFFFDFFF9FEFDEDE3BC61BBE83
:102978005CC67CCE3CC6DABDDABDBED63CC6BDD68A
:102988003BC6FABD7FEFFFFFFFFFFFFFFFFFFFFF23
:10299800FFFFFFFFFFFFFFFFFFFFFFFFFFFFFFFF3F
:1029A800FFFFFFFFFFFFFFFFFFFFFFFFFFFFFFFF2F
:1029B800FFFFFFFFFFFFFFFFFFFFFFFFFFFFFFFF1F
:1029C800FFFFFFFFFFFFFFFFFFFFFFFFDFFFFFFF2F
:1029D800FFFFFFFFFFFFFFFFDFFFDFFFDFFFDFFF7F
:1029E800DFFFDFFFDFFFDFFFFFFFDFFFDFFFDFFFCF
:1029F800FFFFFFFFFFFFFFFFFFFFFFFFFFFFDFF707
:102A0800DFFFFFFFFFFFFFFFFFFFFFFFFFFFFFFFEE
:102A1800FFFFDFFFDFFFDFFFDFFFDFFFDFFFDFFF9E
:102A2800DFFFDFFFFFFFFFFFDFFFDFFFDFFFDFFF6E
:102A3800DFFFDFFFDFFFDFFFDFFFDFFFDFFFDFFF9E
:102A4800DFFFDFFFDFFFDFFFDFFFDFFFDFFFDFFF8E
:102A5800DFFFDFFFDFFFDFFFFFFFDFFFDFFFFFFF3E
:102A6800FFFF7EF79BD6D8BD37A598ADFABD3BBE14
:102A78001BBE1BBE1BBE3CC6DAB538A53BC63BC653
:102A8800FABD3BC698ADDDD6FFFFFFFFFFFFFFFF96
:102A9800FFFFFFFFFFFFFFFFFFFFFFFFFFFFFFFF3E
:102AA800FFFFFFFFFFFFFFFFFFFFFFFFFFFFFFFF2E
:102AB800FFFFFFFFFFFFFFFFFFFFFFFFFFFFFFFF1E
:102AC800FFFFFFFFFFFFFFFFFFFFFFFFFFFFFFFF0E
:102AD800FFFFFFFFFFFFFFFFFFFFFFFFFFFFFFFFFE
:102AE800FFFFFFFFFFFFFFFFFFFFFFFFFFFFFFFFEE
:102AF800FFFFFFFFFFFFFFFFFFFFFFFFFFFFFFFFDE
:102B0800FFFFFFFFFFFFDEFFFFFFFFFFFFFFFFFFEE
:102B1800FFFFFFFFFFFFFFFFFFFFFFFFFFFFFFFFBD
:102B2800FFFFFFFFFFFFFFFFFFFFFFFFFFFFFFFFAD
:102B3800FFFFFFFFFFFFFFFFFFFFFFFFFFFFFFFF9D
:102B4800FFFFFFFFFFFFFFFFFFFFFFFFFFFFFFFF8D
:102B5800FFFFFFFFFFFFFFFFFFFFFFFFFFFFFFFF7D
:102B68001CE7F8BDD7BD5ACE1ABED9B599ADDAB5AE
:102B78007DCEFFDE1FDF1FDF3FE7BED679ADFBBD91
:102B88003BC61BBE3BC6FAB5FFFFFFFFFFFFFFFFBB
:102B9800FFFFFFFFFFFFFFFFFFFFFFFFFFFFFFFF3D
:102BA800FFFFFFFFFFFFFFFFFFFFFFFFFFFFFFFF2D
:102BB800FFFFFFFFFFFFFFFFFFFFFFFFFFFFFFFF1D
:102BC800FFFFFFFFFFFFFFFFFFFFFFFFFFFFFFFF0D
:102BD800FFFFFFFFFFFFFFFFFFFFFFFFFFFFFFFFFD
:102BE800FFFFFFFFFFFFFFFFFFFFFFFFFFFFFFFFED
:102BF800FFFFFFFFFFFFFFFFFFFFFEFFFFFFFFFFDE
:102C0800FFFFDFFFFFFFFFFFFFFFFFF79FF73FF724
:102C18001FF73EE75ED73DD7FDE6DDEEDDEE1DEFA3
:102C28005EF79FFFFFFFFFFFFFFFDFFFDFFFDFFF15
:102C3800DFFFDEFFFEFFFFF7FFF7FFFFFFFFFFFFEE
:102C4800FFFFFFF7FFEFFEF7FFFFFFFFFFFFFFFFAD
:102C5800FFFFFFFFFFFFDFF7FFFFFFFF9FEF1ABE3A
:102C680037A598B5DABDD9BDBBCEFCDE9FF73EEFE0
:102C78003BCE9CD69FF7DFFFDFFFFFFF7CDFD6A5AB
:102C8800DCC65CBEFCBD9CBD7DEFFFFFFFFFFFFF08
:102C9800FFFFFFFFDFFFFFFFFFFFFFFFFFFFFFFF5C
:102CA800FFFFFFFFFFFFFFFFFFFFFFFFFFFFFFFF2C
:102CB800FFFFFFFFFFFFFFFFFFFFFFFFFFFFFFFF1C
:102CC800FFFFFFFFFFFFFFFFFFFFFFFFFFFFFFFF0C
:102CD800FFFFFFFFFFFFFFFFFFFFFFFFFFFFFFFFFC
:102CE800FFFFFFFFFFFFFFFFFFFFFFFFFFFFFFFFEC
:102CF800FFFFFFFFFFFFFFFFFFFFFFFFFFFFDFFFFC
:102D0800FFFFFFFF7FF79CD6FABDFABDDABDB9BD5C
:102D1800B9BDD9B5F9ADF9AD9CCEBCDE1EEF3EF715
:102D2800DCE65AD6BBD63DDFDFFFFFFFFFFFFFFF24
:102D3800FFFFFFFFFFFFFFFFFFFFFFFFFFFFFFFF9B
:102D4800FFFFFFFFFFFFFEFFFFFFFFFFFFFFFFFF8C
:102D5800FFFFFFFFBFF7FFFFFFFFFDDED9B51ABE7C
:102D68005BC61ABE7CCE7CCE5AC61DDF7EEFDFFF67
:102D7800FFFFFDE65ACEDCDEFFFFFFF7FFF77EDF41
:102D880019B67FE73CC69AB57DEFFFFFFFFFFFFF4F
:102D9800FFFFFFFFFFFFFFFFFFFFFFFFFFFFFFFF3B
:102DA800FFFFFFFFFFFFFFFFFFFFFFFFFFFFFFFF2B
:102DB800FFFFFFFFFFFFFFFFFFFFFFFFFFFFFFFF1B
:102DC800FFFFFFFFFFFFFFFFFFFFFFFFFFFFFFFF0B
:102DD800FFFFFFFFFFFFFFFFFFFFFFFFFFFFFFFFFB
:102DE800FFFFFFFFFFFFFFFFFFFFFFFFFFFFFFFFEB
:102DF800FFFFFFFFFFFFFFFFFFFFFFFFFFFFFFFFDB
:102E0800DFFFBFF7F9BD77AD1BBE1BC63BC63BC690
:102E18003BBE3BBE3BBE5BBE9CC67FE7FFFFFFFFE2
:102E2800DFFFFFFF9FF7BCD6FBD6FFFFFFFFFFF7D3
:102E3800FFF7FFFFDFFFDFFFFFFFFFFFFFFFFFFFE2
:102E4800DFFFDFFFDFFFDFFFFFFFFFFFFEFFFFFF0B
:102E5800FFFFFFFFDFF7FFFFFDDE19BEF9BD1ABE5A
:102E68009CCE3EE75FEFFFFFFFFFFCDE7ACEBBD6CE
:102E78001DE7FFFFFFFFBBD618BE3DE7FFF7FFF7D3
:102E8800DDD65BC63FEF98BDBEF7FFFFFFFFFFFF34
:102E9800FFFFFFFFFFFFFFFFFFFFFFFFFFFFFFFF3A
:102EA800FFFFFFFFFFFFFFFFFFFFFFFFFFFFFFFF2A
:102EB800FFFFFFFFFFFFFFFFFFFFFFFFFFFFFFFF1A
:102EC800FFFFFFFFFFFFFFFFFFFFFFFFFFFFFFFF0A
:102ED800FFFFFFFFFFFFFFFFFFFFFFFFFFFFFFFFFA
:102EE800FFFFFFFFFFFFFFFFFFFFFFFFFFFFFFFFEA
:102EF800FFFFFFFFFFFFFFFFFFFFFFFFFFFFFFFFDA
:102F0800FFFF9FF798B5B8B579AD79AD99ADB9AD73
:102F1800B9AD99AD99ADB9AD98A5B8A5B8ADD9BDBC
:102F28003AC6FDDE9FF7FFFF7DCF7AC6DFFFDFFFE2
:102F3800FFFFFFFFFFFFDFFFFFFFFFFFDFFFDFFFF9
:102F4800DFFFDFFFDFFFDFFFFFFFFFFFFFFFFFFF09
:102F5800FFFFFFFFFFFFDCDE97AD3AC69CCEFDDE2C
:102F68007FEFFFFFFFFFDFFFFFFFFFFFFFFF9FF781
:102F7800BBD69AD67DEFFFFFDFF77ACE9CD6DFFF70
:102F8800BFFFBCDE39CE59D6DFFFFFFFFFFFFFFFD3
:102F9800FFFFFFFFFFFFFFFFFFFFFFFFFFFFFFFF39
:102FA800FFFFFFFFFFFFFFFFFFFFFFFFFFFFFFFF29
:102FB800FFFFFFFFFFFFFFFFFFFFFFFFFFFFFFFF19
:102FC800FFFFFFFFFFFFFFFFFFFFFFFFFFFFFFFF09
:102FD800FFFFFFFFFFFFFFFFFFFFFFFFFFFFFFFFF9
:102FE800FFFFFFFFFFFFFFFFFFFFFFFFFFFFFFFFE9
:102FF800FFFFFFFFFFFFFFFFFFFFFFFFFFFFDFFFF9
:10300800DFFFBFF798B536ADDAB5FABD1BBE5CC6B3
:103018007CCE9CCE9CD6BDD6FDD6BCCE9BCEBCCE9F
:103028005AC6D8B5D9BD5BCEFFDFBFEF3ADE9FFFEA
:10303800FFFFBEF7FFFFFFFFFFFFFFFFBFFFBFFF61
:10304800FFFFFFFFFFFFFFFFFFFFFFFFFFFFFFFF88
:10305800DFFFFFFF5EE7B8B5D9BD3AC69CCE5FEF8C
:10306800DFF77FEF7FEFBFF7FFFFFFFFDFFFFFFF18
:10307800FFFFBEF7B9D699CE7DEFDFFF1EE73BCE47
:103088001EEFFFFF74BDD8E6FFFFFFFFFFFFFFFF46
:10309800FFFFFFFFFFFFFFFFFFFFFFFFFFFFFFFF38
:1030A800FFFFFFFFFFFFFFFFFFFFFFFFFFFFFFFF28
:1030B800FFFFFFFFFFFFFFFFFFFFFFFFFFFFFFFF18
:1030C800FFFFFFFFFFFFFFFFFFFFFFFFFFFFFFFF08
:1030D800FFFFFFFFFFFFFFFFFFFFFFFFFFFFFFFFF8
:1030E800FFFFFFFFFFFFFFFFFFFFFFFFFFFFFFFFE8
:1030F800FFFFFFFFFFFFFFFFFFFFFFFFFFFFFFFFD8
:10310800FFFFFFFF9BD6D9BDDDCE1ED75FE77FF758
:103118009FFFBFFFDFFFDFFFDFFFFFFFFFFFFFF7BF
:10312800FFF7FFFF7EEFDCDE3ABE1DE71DEFBBD6E3
:10313800FFFFFFFFDFFFBEFFFEFFFEFFFFFFDFFF1A
:10314800FFFFFFF7FFF7FFFFFFFFFFFFFFFFFFFF97
:10315800DFFFFFFFF9BDD8B5FABD5BCE5BC677AD23
:10316800B8B5DCD6BBD6BBD69AD67ACE9AD6FCDE14
:103178005CEFDEFFFFFFFFFFFCDEBCDEBFFF5EFF94
:103188007AE698E6F4CD38F7FFFFFFFFFFFFFFFF71
:10319800FFFFFFFFFFFFFFFFFFFFFFFFFFFFFFFF37
:1031A800FFFFFFFFFFFFFFFFFFFFFFFFFFFFFFFF27
:1031B800FFFFFFFFFFFFFFFFFFFFFFFFFFFFFFFF17
:1031C800FFFFFFFFFFFFFFFFFFFFFFFFFFFFFFFF07
:1031D800FFFFFFFFFFFFFFFFFFFFFFFFFFFFFFFFF7
:1031E800FFFFFFFFFFFFFFFFFFFFFFFFFFFFFFFFE7
:1031F800FFFFFFFFFFFFFFFFFFFFFFFFFFFFFFFFD7
:10320800FFFFDFFFBCD6D9BD3DD79FE7DFF7BFFF84
:103218009FFFDFFFFFFFFFFFDFFFDFFFFFFFFFF77E
:10322800FFFFFFFFFFFFFFFF9FFFD8CD3DF7FBD656
:1032380059B6FFF7BFFFFFFFFEF7FEEFFEFFFEFFE9
:10324800FEFFFFF7FFF7FFFFFFFFFFFFFFFFFFFF97
:10325800DFFFFDDEB8B55BCEBDD6DFF7DFF79FEF4A
:10326800FCDE39C6FCDEBFF7FFFFDFFF7EEF1CE7A1
:10327800DADE79CE99D65CE7BFF77EF79ADEBEFF35
:1032880077EE92CD75DEF6EEFFFFFFFFFFFFFFFF43
:10329800FFFFFFFFFFFFFFFFFFFFFFFFFFFFFFFF36
:1032A800FFFFFFFFFFFFFFFFFFFFFFFFFFFFFFFF26
:1032B800FFFFFFFFFFFFFFFFFFFFFFFFFFFFFFFF16
:1032C800FFFFFFFFFFFFFFFFFFFFFFFFFFFFFFFF06
:1032D800FFFFFFFFFFFFFFFFFFFFFFFFFFFFFFFFF6
:1032E800FFFFFFFFFFFFFFFFFFFFFFFFFFFFFFFFE6
:1032F800FFFFFFFFFFFFFFFFFFFFFFFFFFFFFFFFD6
:10330800FFFFDFFF1DE7D9BD1CCFBEE7FFFFBFFFF3
:103318009FFFDFFFFFFFFFFFDFFFDFFFDFFFFFFF95
:10332800FFFFFFFFFFFFFFFFBFFFB3C44A8ABBFEDB
:1033380019C67BC6FDD6DFEFFEEFFEEFFEF7FFFFF7
:10334800FEFFFEFFFFFFFFFFFFFFFFFFFFFFFFFF87
:10335800DFFFB8B51AC67CCE9FEFFFFFFFFFDFF790
:10336800FFFFDFFFFBDE59CE9BDEBFF7FFFFFFFF4E
:10337800FFFFFFFF7DEFDCDE9BD61CE77CFFB3D5AC
:1033880070CD53EE33DE99FFFFFFFFFFFFFFFFFF16
:10339800FFFFFFFFFFFFFFFFFFFFFFFFFFFFFFFF35
:1033A800FFFFFFFFFFFFFFFFFFFFFFFFFFFFFFFF25
:1033B800FFFFFFFFFFFFFFFFFFFFFFFFFFFFFFFF15
:1033C800FFFFFFFFFFFFFFFFFFFFFFFFFFFFFFFF05
:1033D800FFFFFFFFFFFFFFFFFFFFFFFFFFFFFFFFF5
:1033E800FFFFFFFFFFFFFFFFFFFFFFFFFFFFFFFFE5
:1033F800FFFFFFFFFFFFFFFFFFFFFFFFFFFFFFFFD5
:10340800DFFFFFFF9FF797B51BCF9EE7FFFFDFFFAB
:10341800BFFFDFFFFFFFFFFFFFFFFFFFDEFFFFFF35
:10342800FFFFBEFFFFFFFFF79DFFABB263A0A9B987
:1034380037F51EF79FEF3CD71BD7BDE7FFFFDFFF30
:10344800FFFFDEFFFFFFFFFFFFFFFFFFFFFFFFFFA5
:10345800BCDE57ADD9BD1ABEFEDE7FEFFFFFFFFF12
:10346800FFFFFFFFFFFFFFFF1DEF19CEFCDEFFF799
:10347800FFFFFFFFDFFFFFFFFFFF1BEFD3CDECBC1C
:10348800EFE572EE33DEBAFFFFFFFFFFFFFFFFFF3E
:10349800FFFFFFFFFFFFFFFFFFFFFFFFFFFFFFFF34
:1034A800FFFFFFFFFFFFFFFFFFFFFFFFFFFFFFFF24
:1034B800FFFFFFFFFFFFFFFFFFFFFFFFFFFFFFFF14
:1034C800FFFFFFFFFFFFFFFFFFFFFFFFFFFFFFFF04
:1034D800FFFFFFFFFFFFFFFFFFFFFFFFFFFFFFFFF4
:1034E800FFFFFFFFFFFFFFFFFFFFFFFFFFFFFFFFE4
:1034F800FFFFFFFFFFFFFFFFFFFFFFFFFFFFFFFFD4
:10350800DFFFFFFFBFF73AC659BE7EEFFFFFBFFFE1
:10351800BFFFDFFFFFFFFFFFFFF7DDEFFFFFBFFF8D
:10352800BFFFFFFFDFF7FFF7B7FDA3B001D063E0F0
:10353800C6B8ADBA56ED9AFE7DFF1DFFDDE69FFFCA
:10354800DFFFFFFFFFFFFEFFFFFFFFFFBFF7DFFF0C
:103558005BCED9BDBDD63FE7DDDE9BCE7ACEDBD6CE
:103568007EEFFFFFFFFFFFFFBFFFFFFFFCDE9ACEEE
:103578005DE7FFFFFFFFDFFF7FEF5BF712D64BCD65
:103588000DEE70F654E6DCFFFFFFFFFFFFFFFFFFC5
:10359800FFFFFFFFFFFFFFFFFFFFFFFFFFFFFFFF33
:1035A800FFFFFFFFFFFFFFFFFFFFFFFFFFFFFFFF23
:1035B800FFFFFFFFFFFFFFFFFFFFFFFFFFFFFFFF13
:1035C800FFFFFFFFFFFFFFFFFFFFFFFFFFFFFFFF03
:1035D800FFFFFFFFFFFFFFFFFFFFFFFFFFFFFFFFF3
:1035E800FFFFFFFFFFFFFFFFFFFFFFFFFFFFFFFFE3
:1035F800FFFFFFFFFFFFFFFFFFFFFFFFFFFFFFFFD3
:10360800FFFFFFFFFFFF3DE797ADDDDEFFFFFFFF99
:10361800FFFFFFFFFFFFFFF7FFEFFFEFFFFFDFFFFA
:103628007FFFDFFFFFFF5DE728D101C081F060F079
:1036380000D843D864D0C4C0ABDAB7FD5BF67FFFCF
:10364800FFFFFFFFBDEFFFF7FFFFFFFFFFFFDFFFFC
:10365800D9BD3BC6FEDEBFF7DFF7DFF79FEF1CDF04
:1036680059CE59CE1DE7FFFFDFFFDFFFFFFFDFF772
:103678001CDF9CD6DFFFDFFF1DE7BBFF30DE6AD50E
:103688000BF64FF675E6FEFFFFFFFFFFFFFFFFFF9C
:10369800FFFFFFFFFFFFFFFFFFFFFFFFFFFFFFFF32
:1036A800FFFFFFFFFFFFFFFFFFFFFFFFFFFFFFFF22
:1036B800FFFFFFFFFFFFFFFFFFFFFFFFFFFFFFFF12
:1036C800FFFFFFFFFFFFFFFFFFFFFFFFFFFFFFFF02
:1036D800FFFFFFFFFFFFFFFFFFFFFFFFFFFFFFFFF2
:1036E800FFFFFFFFFFFFFFFFFFFFFFFFFFFFFFFFE2
:1036F800FFFFFFFFFFFFFFFFFFFFFFFFFFFFFFFFD2
:10370800FFFFFFFFFFFFDFFFFDE6D9C59BD6FFFFE9
:10371800FFF7FFF7FFFFFFF7FFEFFFF7FFFFDFFF01
:10372800DFFFFFFF5EE7B8B546D822D060D880F04B
:1037380040F821F821F800F800E062A80EB3BFFFB6
:10374800FFFFDFFFFFFFFFFFFFFFFFFFFFFF3EE77A
:1037580098AD9CD67FEFFFFFFFFFFFFFDFF7FFFF6E
:10376800FFFF9EF7FCDE7ACE9FFFDFFFFFFFFFF72C
:10377800DFF77FF7FEE6BDDE5EEFFCFFCED568DD46
:103788000BF64FF6B6EEDFFFFFFFFFFFFFFFFFFF71
:10379800FFFFFFFFFFFFFFFFFFFFFFFFFFFFFFFF31
:1037A800FFFFFFFFFFFFFFFFFFFFFFFFFFFFFFFF21
:1037B800FFFFFFFFFFFFFFFFFFFFFFFFFFFFFFFF11
:1037C800FFFFFFFFFFFFFFFFFFFFFFFFFFFFFFFF01
:1037D800FFFFFFFFFFFFFFFFFFFFFFFFFFFFFFFFF1
:1037E800FFFFFFFFFFFFFFFFFFFFFFFFFFFFFFFFE1
:1037F800FFFFFFFFFFFFFFFFFFFFFFFFFFFFFFFFD1
:10380800FFFFFFFFFFFFFFFF9FFF7FF79BCE5AC61B
:103818005DDFFFEFFFF7FFFFDFFFDFFFBFFF9EF773
:103828005EEFDCDE1DE7BFF70DF2C3C860C840E8F5
:1038380020F800F820F800F860F841D04ED39FFF38
:10384800DFFFFFFFFFFFDFFFFFFFFFFFFFFFBCD62C
:10385800D9B5BDD63FE73EE7FDDEFCDEDBD6DBD6DD
:10386800DBDEDBDE7BCE19C697BD1CE71CDF5DE720
:103878007EEF7FF77BD63FEFFFFFFBFF6CCD89E53F
:103888004CFE50F6F8F6DFFFFFFFFFFFFFFFFFFFDC
:10389800FFFFFFFFFFFFFFFFFFFFFFFFFFFFFFFF30
:1038A800FFFFFFFFFFFFFFFFFFFFFFFFFFFFFFFF20
:1038B800FFFFFFFFFFFFFFFFFFFFFFFFFFFFFFFF10
:1038C800FFFFFFFFFFFFFFFFFFFFFFFFFFFFFFFF00
:1038D800FFFFFFFFFFFFFFFFFFFFFFFFFFFFFFFFF0
:1038E800FFFFFFFFFFFFFFFFFFFFFFFFFFFFFFFFE0
:1038F800FFFFFFFFFFFFFFFFFFFFFFFFFFFFFFFFD0
:10390800FFFFFFFFFFFFFFFFDFFFDFF7FFEFBFF75F
:10391800FCE6BACEFAC6BADE5BFE94DCF8DD3CD72C
:103928007DDFDFFFDFFFFFFFB5FCC3B060D800E835
:1039380021E883D883D840F820F841D092F4DEFFFC
:10394800FFFFDFFFBFFFFFFFFFFFDFFFFFFF19C61E
:10395800B9B55BCEBDD6BCD6DCD61CDF3CE73CE7B0
:103968003DE73DE75EEF5EEF3CF75DEFDBD61DDF41
:10397800FCDE19CE1DE7DFFFFFFF99FF4CC5CAED3E
:103988004DFE30F639F7FFFFFFFFFFFFFFFFFFFF98
:10399800FFFFFFFFFFFFFFFFFFFFFFFFFFFFFFFF2F
:1039A800FFFFFFFFFFFFFFFFFFFFFFFFFFFFFFFF1F
:1039B800FFFFFFFFFFFFFFFFFFFFFFFFFFFFFFFF0F
:1039C800FFFFFFFFFFFFFFFFFFFFFFFFFFFFFFFFFF
:1039D800FFFFFFFFFFFFFFFFFFFFFFFFFFFFFFFFEF
:1039E800FFFFFFFFFFFFFFFFFFFFFFFFFFFFFFFFDF
:1039F800FFFFFFFFFFFFFFFFFFFFFFFFFFFFFFFFCF
:103A0800FFFFFFFFFFFFFFFFBFFFFFF7FFF7DFFF2E
:103A18009EFFFFFFFEEFDEFF58FD869815DDFFEFE6
:103A2800FFE7FFFF9FFFFFFF19FEA3A042F002F090
:103A3800E6C847818789A3B842E0E4C0B8FEFEEF34
:103A4800FEF77EFF7FFFFFFFFFFFFFFFDFFFB8B539
:103A58001ABEDDDE9FEFDFFFFFFFFFFFFFFFFFFF67
:103A6800FFFFFFFFFFFFDFFFBEFFFFFFFFFFFFF7C7
:103A7800FFFFDBDEFFFFFFFFFFFFF7EE2CC5CCF5F6
:103A88002DFEF0ED5BFFFFF7FFFFFFFFFFFFFFFFDE
:103A9800FFFFFFFFFFFFFFFFFFFFFFFFFFFFFFFF2E
:103AA800FFFFFFFFFFFFFFFFFFFFFFFFFFFFFFFF1E
:103AB800FFFFFFFFFFFFFFFFFFFFFFFFFFFFFFFF0E
:103AC800FFFFFFFFFFFFFFFFFFFFFFFFFFFFFFFFFE
:103AD800FFFFFFFFFFFFFFFFFFFFFFFFFFFFFFFFEE
:103AE800FFFFFFFFFFFFFFFFFFFFFFFFFFFFFFFFDE
:103AF800FFFFFFFFFFFFFFFFFFFFFFFFFFFFFFFFCE
:103B0800DEFFFFFFFFFFFFFFBFFFFFF7FFEF9EFF97
:103B18009FFFFEFFFDDF9DFF72FB67B8D4E4FDDF6A
:103B2800FDCF3CE79BE6F7BDCFABC4A823F004F07C
:103B3800D7FC3BD677BDB0EB26E1E7B9FDFFFED752
:103B4800FEEF9EFFBFFFFFF7FFFFFFFF5EEF77ADC2
:103B58003AC6BDD69BCE5ACE7ACE7ACEBAD61CE716
:103B68007EEFBFF7DFFFFFFFFEFFFFFFDFF7FFF787
:103B7800FCDE5DEFDFFFFFFFFEFFB6E62CC5EDF5CF
:103B88002EFE11EE9CFFFFF7FFFFFFFFFFFFFFFF79
:103B9800FFFFFFFFFFFFFFFFFFFFFFFFFFFFFFFF2D
:103BA800FFFFFFFFFFFFFFFFFFFFFFFFFFFFFFFF1D
:103BB800FFFFFFFFFFFFFFFFFFFFFFFFFFFFFFFF0D
:103BC800FFFFFFFFFFFFFFFFFFFFFFFFFFFFFFFFFD
:103BD800FFFFFFFFFFFFFFFFFFFFFFFFFFFFFFFFED
:103BE800FFFFFFFFFFFFFFFFFFFFFFFFFFFFFFFFDD
:103BF800FFFFFFFFFFFFFFFFFFFFFFFFFFFFFFFFCD
:103C0800FFFFFFFFFFFFFFFFFFFFFFFFDFFF9FFF3C
:103C18009FFFFFFFFEF77DFFA9E103F822F824F9D3
:103C2800C1F081F061E800D000F821F882D08ACA9A
:103C38001BFFBFFF7FEF7FEF1ACE98BDDFFFBFFFEF
:103C4800FFFFFFFFFFFFFFFFDFFFDFFFDDDEF9BD47
:103C58003CEFFFFFBFFFDFFFDFFFBEEF5DE7FCDEEE
:103C6800BAD699D69AD69CD61CE79FF7FFFFFFFFD6
:103C7800FBE6DEFFFFFFFFFFFDFF12E62ADD0CFE7D
:103C88004FF673E6DDFFFFFFFFFFFFFFFFFFFFFFBC
:103C9800FFFFFFFFFFFFFFFFFFFFFFFFFFFFFFFF2C
:103CA800FFFFFFFFFFFFFFFFFFFFFFFFFFFFFFFF1C
:103CB800FFFFFFFFFFFFFFFFFFFFFFFFFFFFFFFF0C
:103CC800FFFFFFFFFFFFFFFFFFFFFFFFFFFFFFFFFC
:103CD800FFFFFFFFFFFFFFFFFFFFFFFFFFFFFFFFEC
:103CE800FFFFFFFFFFFFFFFFFFFFFFFFFFFFFFFFDC
:103CF800FFFFFFFFFFFFFFFFFFFFFFFFFFFFFFFFCC
:103D0800FFFFFFFFFFFFFFFFFFFFFFF7FFFFDFFFE3
:103D1800DFFFFFFFFFF7BDFF4ED383B0C3C082B8FC
:103D280003D162D862D883D862E082C00CE359FE1E
:103D3800DEFFDEEF9EE79AC6F8BDF8C5BEFFFFFFBF
:103D4800FFFFFFFFFFFFDFF7DFFFFFFF5BC61AC6BE
:103D58005DEFFFFFDFFFFFFFFFFFFFF7FFFFFFFF45
:103D6800FFFFFFFFDFF77FEFBBDEBBD69BCE59CE51
:103D78001BE7DFFFDFFFFFFFFDFFD0DD4ADD0CFEA5
:103D88004FF674E6DDFFFFFFFFFFFFFFFFFFFFFFBA
:103D9800FFFFFFFFFFFFFFFFFFFFFFFFFFFFFFFF2B
:103DA800FFFFFFFFFFFFFFFFFFFFFFFFFFFFFFFF1B
:103DB800FFFFFFFFFFFFFFFFFFFFFFFFFFFFFFFF0B
:103DC800FFFFFFFFFFFFFFFFFFFFFFFFFFFFFFFFFB
:103DD800FFFFFFFFFFFFFFFFFFFFFFFFFFFFFFFFEB
:103DE800FFFFFFFFFFFFFFFFFFFFFFFFFFFFFFFFDB
:103DF800FFFFFFFFFFFFFFFFFFFFFFFFFFFFFFFFCB
:103E0800FFFFFFFFFFFFFFFFFFFFFFF7FFEFFFFFD2
:103E1800FFFFFFFFFFF7FEFFDEFFD6E5CEB30CBBCB
:103E2800A7B167C146C109D2AFCB96FD1CFFDFFF22
:103E3800FFF7FFEFFFEFFFEF7DE7BACE9DEFDEF76D
:103E4800FFFFFFFFFFFFFFFFFFFFFFFFB9B5DABD71
:103E58005BCE9BDE1DEF7DEFFFF7FFF7FFFFBFFF98
:103E6800DFFFFFFFFFFFFFFFFFFFFFFFBFF77ACE78
:103E78009EF7FFFFDFFFFFFFDCFF6ECD8BE52DFE1A
:103E880050F6B5EEFEFFFFFFFFFFFFFFFFFFFFFF4E
:103E9800FFFFFFFFFFFFFFFFFFFFFFFFFFFFFFFF2A
:103EA800FFFFFFFFFFFFFFFFFFFFFFFFFFFFFFFF1A
:103EB800FFFFFFFFFFFFFFFFFFFFFFFFFFFFFFFF0A
:103EC800FFFFFFFFFFFFFFFFFFFFFFFFFFFFFFFFFA
:103ED800FFFFFFFFFFFFFFFFFFFFFFFFFFFFFFFFEA
:103EE800FFFFFFFFFFFFFFFFFFFFFFFFFFFFFFFFDA
:103EF800FFFFFFFFFFFFFFFFFFFFFFFFFFFFFFFFCA
:103F0800FFFFFFFFFFFFFFFFFEFFFFFFFFF7FFF7CA
:103F1800FFFFDFFFFFFFFFFFFFF73BD7BAD67AEEC1
:103F2800BCFE1EFFBCFE5DFFDFFFFFFFBEFFDFFF25
:103F3800DFFFFFFFDFFFFFFFFFFFFFFFBAD6FFFF37
:103F4800FFFFDFFFFFFFDFFFFEFF9FF778AD3CCEEF
:103F5800FDE6BCE6BBE699D6B9CE5CDFDFF7DFFF4E
:103F6800DFFFDEFFFEFFFFFFDFFFDFFFFFFFDAD629
:103F7800BEFFDFFFFFFFFFFFBBFF2CC5ACED2EFE32
:103F880050EED7EEFEFFFFFFFFFFFFFFFFFFFFFF33
:103F9800FFFFFFFFFFFFFFFFFFFFFFFFFFFFFFFF29
:103FA800FFFFFFFFFFFFFFFFFFFFFFFFFFFFFFFF19
:103FB800FFFFFFFFFFFFFFFFFFFFFFFFFFFFFFFF09
:103FC800FFFFFFFFFFFFFFFFFFFFFFFFFFFFFFFFF9
:103FD800FFFFFFFFFFFFFFFFFFFFFFFFFFFFFFFFE9
:103FE800FFFFFFFFFFFFFFFFFFFFFFFFFFFFFFFFD9
:103FF800FFFFFFFFFFFFFFFFFFFFFFFFFFFFFFFFC9
:10400800FFFFFFFFFFFFFFFFDEFFDFFFFFFFFFFFF9
:10401800FFFFDFFFBFFFDFFFFFF71DCF369D7CD619
:10402800BFFF7EFFFEFFFEFF5AEFD9E699E6DAF6FC
:1040380099F67AEE7AEEBBEE1DEFDFFF5EE75EE7FC
:10404800DFFFFFFFBFFFDFFFFEFFFCDEFBB5DFDEAC
:10405800FFFFDFFFFFFFDEFF9CEFFBD67BCE9CD68A
:104068003EF7BEFFFFFFFFFFFFFFBFF7FFFF1BDFAE
:10407800FFFFDFFFDFFFFFFF58F70BC5ECF52EFE54
:1040880031EE18F7FEFFFFFFFFFFFFFFFFFFFFFF07
:10409800FFFFFFFFFFFFFFFFFFFFFFFFFFFFFFFF28
:1040A800FFFFFFFFFFFFFFFFFFFFFFFFFFFFFFFF18
:1040B800FFFFFFFFFFFFFFFFFFFFFFFFFFFFFFFF08
:1040C800FFFFFFFFFFFFFFFFFFFFFFFFFFFFFFFFF8
:1040D800FFFFFFFFFFFFFFFFFFFFFFFFFFFFFFFFE8
:1040E800FFFFFFFFFFFFFFFFFFFFFFFFFFFFFFFFD8
:1040F800FFFFFFFFFFFFFFFFFFFFFFFFFFFFFFFFC8
:10410800FFFFFFFFFFFFFFFFDEFFDFFFDFFFFFFF18
:10411800FFFFFFFFDFFFDFFFDFFFFFFF1BCE7FFF9C
:104128009FFF9EFF57D6D4CD13DE13E6F3ED93ED34
:10413800D4F5D5F5D6ED17E638D6DFFFDBD6DFF7B1
:10414800FFFFFFFFDFFFDFFFFFFF5BBE1CB69EC662
:104158009FEFBFFFFFFFFFFFFFFFFFFFFFFF7FEFA7
:104168009CD679CE1CE7FFFFDFFFFFFF9DEFFADE4D
:10417800FFFFFFFFBFFFFFFFD6EE2ACDECF54FFE96
:1041880012EE5AFFFEFFFFFFFFFFFFFFFFFFFFFFDB
:10419800FFFFFFFFFFFFFFFFFFFFFFFFFFFFFFFF27
:1041A800FFFFFFFFFFFFFFFFFFFFFFFFFFFFFFFF17
:1041B800FFFFFFFFFFFFFFFFFFFFFFFFFFFFFFFF07
:1041C800FFFFFFFFFFFFFFFFFFFFFFFFFFFFFFFFF7
:1041D800FFFFFFFFFFFFFFFFFFFFFFFFFFFFFFFFE7
:1041E800FFFFFFFFFFFFFFFFFFFFFFFFFFFFFFFFD7
:1041F800FFFFFFFFFFFFFFFFFFFFFFFFFFFFFFFFC7
:10420800FFFFFFFFFFFFFFFFFEFFFFFFDFFFFFFFD7
:10421800FFF7FFF7FFFFFEFFFFFFDFFFDACDFEEE40
:104228007BDEF2B411CDB2F553FE12F674FE74FEC5
:1042380034FE34FE35F677EE98E63BE79DEFDEF781
:10424800FFFFFEFFDDFFFDFFFFFFFAB5FCAD3CB64B
:104258009CCEBBDE7ADE38DE98DE99D6DCDE7FEFD8
:10426800FFFFBEFFFBE65ACE5EEFFFFF7CE75BEF8A
:10427800DFFFFFFFBFFFFEFF53DE4ACD0CF64FFE08
:1042880033E67CFFFFFFFEFFFFFFFFFFFFFFFFFF9F
:10429800FFFFFFFFFFFFFFFFFFFFFFFFFFFFFFFF26
:1042A800FFFFFFFFFFFFFFFFFFFFFFFFFFFFFFFF16
:1042B800FFFFFFFFFFFFFFFFFFFFFFFFFFFFFFFF06
:1042C800FFFFFFFFFFFFFFFFFFFFFFFFFFFFFFFFF6
:1042D800FFFFFFFFFFFFFFFFFFFFFFFFFFFFFFFFE6
:1042E800FFFFFFFFFFFFFFFFFFFFFFFFFFFFFFFFD6
:1042F800FFFFFFFFFFFFFFFFFFFFFFFFFFFFFFFFC6
:10430800FFFFFFFFFFFFFFFFFFEFFFF7FFFFFFFFCD
:10431800FFFFFFFFFEFFFEFFDEFFFFFFDCDEF8BD55
:10432800D6C5F0BC50ED6FFD35FE34FE33FE33FECE
:1043380012FE74FE33F655EE36DE3AEFFEFFFFF757
:10434800FEF7FEFFFEFFFDFFBFFFF9C59CCE3AC694
:1043580034B512BD74DDF5E5F4E515DE16D6D5D510
:10436800D5CD36DEDAEE5DFF7BCEBBD6BAD6FEFF04
:10437800DEFFFFFFFFFFFDFFF0D56AD50CF650FE0C
:1043880055E6BDFFFFFFFEFFFFFFFFFFFFFFFFFF3B
:10439800FFFFFFFFFFFFFFFFFFFFFFFFFFFFFFFF25
:1043A800FFFFFFFFFFFFFFFFFFFFFFFFFFFFFFFF15
:1043B800FFFFFFFFFFFFFFFFFFFFFFFFFFFFFFFF05
:1043C800FFFFFFFFFFFFFFFFFFFFFFFFFFFFFFFFF5
:1043D800FFFFFFFFFFFFFFFFFFFFFFFFFFFFFFFFE5
:1043E800FFFFFFFFFFFFFFFFFFFFFFFFFFFFFFFFD5
:1043F800FFFFFFFFFFFFFFFFFFFFFFFFFFFFFFFFC5
:10440800FFFFFFFFFFFFFFFFFFEFFFF7FFFFFFFFCC
:10441800FFFFFFFFFDFFFDFFFDFFFFFFFFF77DE74C
:1044280077D630CD2EE56DFD16FE16FE35FE54F618
:1044380053FE33FE33FE14F636EEDDFFFFFFFFFFBB
:10444800FFF7FFFFFFFFFFFFFEFF1CEF7ADE1AFFFB
:1044580030CD71E5D2FD14FE33FE53FE54FE55FEF9
:1044680013F654F615E617DEFFFF5DE778CEFEFF7C
:10447800DEFFFFFFDFFFFDFF8ECDAAE52CFE50F625
:1044880076E6DFFFFFFFFEFFFFFFFFFFFFFFFFFFF7
:10449800FFFFFFFFFFFFFFFFFFFFFFFFFFFFFFFF24
:1044A800FFFFFFFFFFFFFFFFFFFFFFFFFFFFFFFF14
:1044B800FFFFFFFFFFFFFFFFFFFFFFFFFFFFFFFF04
:1044C800FFFFFFFFFFFFFFFFFFFFFFFFFFFFFFFFF4
:1044D800FFFFFFFFFFFFFFFFFFFFFFFFFFFFFFFFE4
:1044E800FFFFFFFFFFFFFFFFFFFFFFFFFFFFFFFFD4
:1044F800FFFFFFFFFFFFFFFFFFFFFFFFFFFFFFFFC4
:10450800FFFFFFFFFFFFFFFFFFFFFFFFFFFFFFFFB3
:10451800FFFFFFFFFEFFFDFFFEFFFFFFFFF7FFFFAF
:104528009DFF51D50EDD8EED17FE16FE35F634F6DD
:1045380033FE33FE13FE14FEF5F57CFFDFFFFFFFAD
:10454800DFF7FFFFDFFFBFFFDEFFFFFF3CFF56FE89
:10455800EEDC70F5B1FD33FE32FE32FE12FE12FEC5
:1045680032FE53FE35E6DAEE3EE73DE77DEFFFFF2C
:10457800FFFFBFFFFFFFDCFF6DCDAAE52CFE51F664
:1045880097EEFFFFFFFFFEFFFFFFFFFFFFFFFFFFAD
:10459800FFFFFFFFFFFFFFFFFFFFFFFFFFFFFFFF23
:1045A800FFFFFFFFFFFFFFFFFFFFFFFFFFFFFFFF13
:1045B800FFFFFFFFFFFFFFFFFFFFFFFFFFFFFFFF03
:1045C800FFFFFFFFFFFFFFFFFFFFFFFFFFFFFFFFF3
:1045D800FFFFFFFFFFFFFFFFFFFFFFFFFFFFFFFFE3
:1045E800FFFFFFFFFFFFFFFFFFFFFFFFFFFFFFFFD3
:1045F800FFFFFFFFFFFFFFFFFFFFFFFFFFFFFFFFC3
:10460800FFFFFFFFFFFFFFFFBFFFDFFFFFFFFFFF12
:10461800FFFFFFFFFEF7FEFFFFFFFFFFDFFFDFFFEC
:10462800BFFF53DD10D54FDD53DD72DD92DDB1DD07
:10463800B1E5B1EDB2F5B3F594ED9DFFDEFFFFFFF7
:10464800FFF7FFF7FFFFBFFFFFF7FFFFDFFF36F6BC
:10465800CEDC50EDF3FD13F653F633F612FED2FD21
:1046680033FE33F636DE1CE77EEFBEF7FFFFFFFFB3
:10467800FFFFBFFFFFFF59F72BC5CAED2DFE31F62F
:10468800D9EEFFFFFFFFFEFFFFFFFFFFFFFFFFFF6A
:10469800FFFFFFFFFFFFFFFFFFFFFFFFFFFFFFFF22
:1046A800FFFFFFFFFFFFFFFFFFFFFFFFFFFFFFFF12
:1046B800FFFFFFFFFFFFFFFFFFFFFFFFFFFFFFFF02
:1046C800FFFFFFFFFFFFFFFFFFFFFFFFFFFFFFFFF2
:1046D800FFFFFFFFFFFFFFFFFFFFFFFFFFFFFFFFE2
:1046E800FFFFFFFFFFFFFFFFFFFFFFFFFFFFFFFFD2
:1046F800FFFFFFFFFFFFFFFFFFFFFFFFFFFFFFFFC2
:10470800FFFFFFFFFFFFFFFFDFFFDFFFFFFFFFFFF1
:10471800FFFFFFF7FFF7FFF7FFF7FFFFDFFF9FFF41
:104728001EF755C533C592C574C594BDB4BDB3BD98
:1047380093BD73C533C534C534BD7DEFFFF7FFEFB7
:10474800FFEFFFEFDEFFFFFFFFEFDFF7BEFFB5E58F
:10475800EFDC71ED55FE96F654E674F655FE14FE40
:1047680034FE14EE1AEFFFF7FFFFFFFFFFFFFFFF16
:10477800DFFFFFFFFFFFD6EE0BC5EBF52DFE31EE99
:104788001AEFFFFFFFFFFFFFFFFFFFFFFFFFFFFF26
:10479800FFFFFFFFFFFFFFFFFFFFFFFFFFFFFFFF21
:1047A800FFFFFFFFFFFFFFFFFFFFFFFFFFFFFFFF11
:1047B800FFFFFFFFFFFFFFFFFFFFFFFFFFFFFFFF01
:1047C800FFFFFFFFFFFFFFFFFFFFFFFFFFFFFFFFF1
:1047D800FFFFFFFFFFFFFFFFFFFFFFFFFFFFFFFFE1
:1047E800FFFFFFFFFFFFFFFFFFFFFFFFFFFFFFFFD1
:1047F800FFFFFFFFFFFFFFFFFFFFFFFFFFFFFFFFC1
:10480800FFFFFFFFFFFFFFFFFFFFFFFFFFFFFFFFB0
:10481800FFFFFFFFFFFFFFFFFFF77FDFDECE3CBE9E
:104828003BBEBBC61BC7FACEFDCEFDCE1DC71DC7FE
:10483800FDC6DCC69CC67CC63BB65BAEDCAEDCAE59
:10484800BECFFFEFFFF7FFFFFFF7FFFF7DFF12CDA2
:1048580031DD51DD52D572C5F3CD13DED4EDF4FD53
:10486800F3FD14EE9BFFFFF7FFFFFFFFDFFFFFFFE6
:10487800DFFFFFFFFEFF94E62ACDEBFD2DFE31EEB4
:104888005BF7FFFFFFF7FFFFFFFFFFFFFFFFFFFFE4
:10489800FFFFFFFFFFFFFFFFFFFFFFFFFFFFFFFF20
:1048A800FFFFFFFFFFFFFFFFFFFFFFFFFFFFFFFF10
:1048B800FFFFFFFFFFFFFFFFFFFFFFFFFFFFFFFF00
:1048C800FFFFFFFFFFFFFFFFFFFFFFFFFFFFFFFFF0
:1048D800FFFFFFFFFFFFFFFFFFFFFFFFFFFFFFFFE0
:1048E800FFFFFFFFFFFFFFFFFFFFFFFFFFFFFFFFD0
:1048F800FFFFFFFFFFFFFFFFFFFFFFFFFFFFFFFFC0
:10490800FFFFFFFFFFFFFFFFFFF7FFFFFFFFFFFFB7
:10491800DFFFDFFFBFFFBFFF1ECF5B9E7DAE3FCF38
:104928005FC79FBF7EB7BFC73FC75FC75FBF7FBFB8
:104938007FC77FC75FC75FC77FC73FBFFFB6FEAEF2
:104948007BA6BCB6FFEFFFEFFEF75DE79BDE13B576
:1049580053CD53CD94CDD5C5B4B593BD53C574D5FA
:10496800B3DD56E6FEFFFFFFFFFFFFFFDFFFFFFFA0
:10497800FFFFDFFFFDFF33D64BD50BFE2DFE52EEBA
:104988009BF7FFF7FFF7FFFFFFFFFFFFFFFFFFFFAB
:10499800FFFFFFFFFFFFFFFFFFFFFFFFFFFFFFFF1F
:1049A800FFFFFFFFFFFFFFFFFFFFFFFFFFFFFFFF0F
:1049B800FFFFFFFFFFFFFFFFFFFFFFFFFFFFFFFFFF
:1049C800FFFFFFFFFFFFFFFFFFFFFFFFFFFFFFFFEF
:1049D800FFFFFFFFFFFFFFFFFFFFFFFFFFFFFFFFDF
:1049E800FFFFFFFFFFFFFFFFFFFFFFFFFFFFFFFFCF
:1049F800FFFFFFFFFFFFFFFFFFFFFFFFFFFFFFFFBF
:104A0800FFFFFFFFFFFFFFFFFFF7FFFFFFFFFFFFB6
:104A1800DFFFDFFF9FFF5FEF198E3E9FBFC71FCFEE
:104A2800BEBE5FBF7FBF1FBF3FCF3FCF3FC73FC7A0
:104A38003FBF3FBF3FBF3FC73FC77FCF1FC77FD7DE
:104A4800FEC67CB6FFE75FD77AB63BAE9DBEDDCE2D
:104A58001DD7FCD61EDFFED65ED73DCFFDCE7BC66A
:104A6800D7BD58C63DDFDFE7FEFFFFFFDFFFDFFFF3
:104A7800FFFFFFFFFDFFD0CD6BDD0CFE2EFE73F6B2
:104A8800DCFFFFF7FFF7FFFFFFFFFFFFFFFFFFFF61
:104A9800FFFFFFFFFFFFFFFFFFFFFFFFFFFFFFFF1E
:104AA800FFFFFFFFFFFFFFFFFFFFFFFFFFFFFFFF0E
:104AB800FFFFFFFFFFFFFFFFFFFFFFFFFFFFFFFFFE
:104AC800FFFFFFFFFFFFFFFFFFFFFFFFFFFFFFFFEE
:104AD800FFFFFFFFFFFFFFFFFFFFFFFFFFFFFFFFDE
:104AE800FFFFFFFFFFFFFFFFFFFFFFFFFFFFFFFFCE
:104AF800FFFFFFFFFFFFFFFFFFFFFFFFFFFFFFFFBE
:104B0800FFFFFFFFFFFFFFFFFFFFFFFFFFFFFFFFAD
:104B1800FFEFFFFF9FFF3FD79A86FC7EBD9E7EC6B4
:104B2800FFDEFFCE1FD7FFDE1ED71ED71ED71ECF34
:104B38003ECF3ECF3ECF3ECF3ECFDECEFED6BDCE21
:104B4800BECE5CBEFAA53BAEFEB69FC77FBF3FB7E1
:104B58007FBF5FC73FC73FC75FBF3FB79FBF7FC725
:104B68005FC75FC75CA63DA67BE7FFFFFFFFFFFFB0
:104B7800BFFFFFFFFCFF6FC58CDD0CFE2EFE93F61A
:104B8800FDFFFFF7FFF7FFFFFFFFFFFFFFFFFFFF3F
:104B9800FFFFFFFFFFFFFFFFFFFFFFFFFFFFFFFF1D
:104BA800FFFFFFFFFFFFFFFFFFFFFFFFFFFFFFFF0D
:104BB800FFFFFFFFFFFFFFFFFFFFFFFFFFFFFFFFFD
:104BC800FFFFFFFFFFFFFFFFFFFFFFFFFFFFFFFFED
:104BD800FFFFFFFFFFFFFFFFFFFFFFFFFFFFFFFFDD
:104BE800FFFFFFFFFFFFFFFFFFFFFFFFFFFFFFFFCD
:104BF800FFFFFFFFFFFFFFFFFFFFFFFFFFFFFFFFBD
:104C0800FFFFFFFFFFFFFFFFFFFFFFFFFFFFFFF7B4
:104C1800FFFFDFFFDEFFFFF71AA63D9EDFBEFFCED8
:104C28005FD71DC75ECF7EDFBFD7BFD79FCFBFD7A8
:104C38009FD77FD77FDF9FDF7EDF5DDF1DD7DDC694
:104C48005CAE9A855E96FFA6FFB6FFB6FFB6FFBEBE
:104C5800FFCEFFD61FD73ECF7FCFDFBE3FD7FFDEC9
:104C6800DFDEDFD65FCF9E9E39B6FFFFFFFFFFFF77
:104C7800FFFFFEFF58FF4DCDCEE52FF630F694FE30
:104C8800FEFFFFF7FFF7FFFFFFFFFFFFFFFFFFFF3D
:104C9800FFFFFFFFFFFFFFFFFFFFFFFFFFFFFFFF1C
:104CA800FFFFFFFFFFFFFFFFFFFFFFFFFFFFFFFF0C
:104CB800FFFFFFFFFFFFFFFFFFFFFFFFFFFFFFFFFC
:104CC800FFFFFFFFFFFFFFFFFFFFFFFFFFFFFFFFEC
:104CD800FFFFFFFFFFFFFFFFFFFFFFFFFFFFFFFFDC
:104CE800FFFFFFFFFFFFFFFFFFFFFFFFFFFFFFFFCC
:104CF800FFFFFFFFFFFFFFFFFFFFFFFFFFFFFFFFBC
:104D0800FFFFFFFFFFFFFFFFFFFFFFFFFFFFFFF7B3
:104D1800FFFFDFFFDEFFFEEF5B9EDFAE7FCF5FCFE3
:104D28007FCF9FC7DFB63DA69D7D3C75FB6CDB64DE
:104D3800DB64DC6C1D755D7DDE8D7FA63FBFBFCF5C
:104D48009FC75FBFFB8D1C961B9EBDAE3FBF5FC755
:104D58007FCF9FD77FD75FC71EBF7FCFFECEBED680
:104D6800FFDE3FD77FCF9B9E3DD7FFFFDFFFFFFFD3
:104D7800FFFFFEFF16FF0CCDEEE550F630F6B5FE50
:104D8800FEFFFFF7FFF7FFFFFFFFFFFFFFFFFFFF3C
:104D9800FFFFFFFFFFFFFFFFFFFFFFFFFFFFFFFF1B
:104DA800FFFFFFFFFFFFFFFFFFFFFFFFFFFFFFFF0B
:104DB800FFFFFFFFFFFFFFFFFFFFFFFFFFFFFFFFFB
:104DC800FFFFFFFFFFFFFFFFFFFFFFFFFFFFFFFFEB
:104DD800FFFFFFFFFFFFFFFFFFFFFFFFFFFFFFFFDB
:104DE800FFFFFFFFFFFFFFFFFFFFFFFFFFFFFFFFCB
:104DF800FFFFFFFFFFFFFFFFFFFFFFFFFFFFFFFFBB
:104E0800FFFFFFFFFFFFFFFFFEFFFEFFFEFFFFFFAD
:104E1800FFFFFFFFFEFFFFEF5B9EFFAE7FC79FA672
:104E28007F7D7B4C1623D522B90AB90AB90ADA0A5A
:104E3800BA0ABB0ABB02BA02DA0AF90A591B3A3C97
:104E4800BE7DDFC7FFAE1B96FFBE7FC7BFC75FB77C
:104E5800BFA69F9EDFA61FAF9FBF7FC75ECF1DCF98
:104E68005BBE9CBE1DB71BAFFFF7FFFFDFFFFFFF59
:104E7800FFFFFEFF95EE0BCDEEED50FE31EE17FF76
:104E8800FEFFFFF7FFF7FFFFFFFFFFFFFFFFFFFF3B
:104E9800FFFFFFFFFFFFFFFFFFFFFFFFFFFFFFFF1A
:104EA800FFFFFFFFFFFFFFFFFFFFFFFFFFFFFFFF0A
:104EB800FFFFFFFFFFFFFFFFFFFFFFFFFFFFFFFFFA
:104EC800FFFFFFFFFFFFFFFFFFFFFFFFFFFFFFFFEA
:104ED800FFFFFFFFFFFFFFFFFFFFFFFFFFFFFFFFDA
:104EE800FFFFFFFFFFFFFFFFFFFFFFFFFFFFFFFFCA
:104EF800FFFFFFFFFFFFFFFFFFFFFFFFFFFFFFFFBA
:104F0800FFFFFFFFFFFFFFFFFEFFFEFFFEFFFFFFAC
:104F1800FFFFFFFFFEFFFFEF5B9E9F9E3F8EB83BAC
:104F2800D70AFA02FB0A5C1B7F0B7F0B7F137F13E8
:104F38007F137F137F137F0B7F0B7F0B5D0BD902D2
:104F4800171BDB5CFFAE7E9EDFA6BF857A54B72BAE
:104F5800151BF51215135723D933FB649E9E9FC763
:104F68009FCFBFAEF995FFD7FFF7FFFFFFFFFFFF0A
:104F7800FFF7FEFF32E62BD50DF650F632EE59FF5D
:104F8800FEFFFFFFFFFFFFFFFFFFFFFFFFFFFFFF2A
:104F9800FFFFFFFFFFFFFFFFFFFFFFFFFFFFFFFF19
:104FA800FFFFFFFFFFFFFFFFFFFFFFFFFFFFFFFF09
:104FB800FFFFFFFFFFFFFFFFFFFFFFFFFFFFFFFFF9
:104FC800FFFFFFFFFFFFFFFFFFFFFFFFFFFFFFFFE9
:104FD800FFFFFFFFFFFFFFFFFFFFFFFFFFFFFFFFD9
:104FE800FFFFFFFFFFFFFFFFFFFFFFFFFFFFFFFFC9
:104FF800FFFFFFFFFFFFFFFFFFFFFFFFFFFFFFFFB9
:10500800FFFFFFFFFFFFFFFFFFFFFFFFFFFFFFFFA8
:10501800FFFFFFFFFFFFFFEFFDB65D969D7DD512F9
:105028001A039F0BBF137F1B9F0B9F0B7F137F13CD
:105038007E137F139F139F135F0B5F0B9F1B9E1B9A
:105048001B13F8127F6D9F755C23F9129802F90AF9
:105058003B133B0B1B031C0BFB0AB802D50AD82BCE
:10506800FF7DBFC71FB7DBAEFFF7DEFFFFFFFFFF08
:10507800FFF7FEFFF1DD4BE5EDFD50F653E69BFF34
:10508800FEFFFFFFFFFFFFFFFFFFFFFFFFFFFFFF29
:10509800FFFFFFFFFFFFFFFFFFFFFFFFFFFFFFFF18
:1050A800FFFFFFFFFFFFFFFFFFFFFFFFFFFFFFFF08
:1050B800FFFFFFFFFFFFFFFFFFFFFFFFFFFFFFFFF8
:1050C800FFFFFFFFFFFFFFFFFFFFFFFFFFFFFFFFE8
:1050D800FFFFFFFFFFFFFFFFFFFFFFFFFFFFFFFFD8
:1050E800FFFFFFFFFFFFFFFFFFFFFFFFFFFFFFFFC8
:1050F800FFFFFFFFFFFFFFFFFFFFFFFFFFFFFFFFB8
:10510800FFFFFFFFFFFFFFFFFFFFFFFFDFFFDFFFE7
:10511800DFFFDFFFFFFFFFF7FFDFDDB63D9615235B
:105128005B0B9F039F0B5F135F135F137F1B7E1B3C
:105138007E1B7D1B5D1B5D13BF235E133E137F1B10
:10514800BF235C1B3A13F9123E0B7E139F1B7F1B78
:105158005F137E0B7F0B9F137F0B9F0B9D0B3A03F7
:10516800D90AFF6CBFD799BEFFF7DEFFDEFFFFFF4E
:10517800FFF7FEFF8FD54AE50CFE30F674E6DCFF3C
:10518800FEFFFFFFFFFFFFFFFFFFFFFFFFFFFFFF28
:10519800FFFFFFFFFFFFFFFFFFFFFFFFFFFFFFFF17
:1051A800FFFFFFFFFFFFFFFFFFFFFFFFFFFFFFFF07
:1051B800FFFFFFFFFFFFFFFFFFFFFFFFFFFFFFFFF7
:1051C800FFFFFFFFFFFFFFFFFFFFFFFFFFFFFFFFE7
:1051D800FFFFFFFFFFFFFFFFFFFFFFFFFFFFFFFFD7
:1051E800FFFFFFFFFFFFFFFFFFFFFFFFFFFFFFFFC7
:1051F800FFFFFFFFFFFFFFFFFFFFFFFFFFFFFFFFB7
:10520800FFFFFFFFFFFFFFFFFFF7FFFFDFFFDFFFEE
:10521800DFFFDFFFFFFFFFFFFFF7FFEFFFDFD743F2
:105228001A0B9F03BF133F135F235F235F235F1B8B
:105238005E1B7E1B7E1B7E1B3D135E1B5E1B5E1B67
:105248005E1B9E1BDB023C0B9E139E137F1B5F1B8A
:105258005F1B9F1B9F135F137F137F139F0B9E0B77
:10526800FC0A1933FFCE7AF7FFFFFFFFDEFFFFFFCF
:10527800FFF7DDFF4DCD6AED0CFE30EE96E6FEFF42
:10528800FFFFFFFFFFFFFFFFFFFFFFFFFFFFFFFF26
:10529800FFFFFFFFFFFFFFFFFFFFFFFFFFFFFFFF16
:1052A800FFFFFFFFFFFFFFFFFFFFFFFFFFFFFFFF06
:1052B800FFFFFFFFFFFFFFFFFFFFFFFFFFFFFFFFF6
:1052C800FFFFFFFFFFFFFFFFFFFFFFFFFFFFFFFFE6
:1052D800FFFFFFFFFFFFFFFFFFFFFFFFFFFFFFFFD6
:1052E800FFFFFFFFFFFFFFFFFFFFFFFFFFFFFFFFC6
:1052F800FFFFFFFFFFFFFFFFFFFFFFFFFFFFFFFFB6
:10530800FFFFFFFFFFFFFFFFFFEFFFFFFFFFDFFFD5
:10531800DFFFDFFFFFFFFEFFFEFFFFF7FFF7175C72
:10532800F9127F0B7F133F231F2B3F2B5F235F1B3C
:105338005F137F137F135F137F1B5F1B5F1B7F232D
:105348003E1B7E1B1C0B3D0B9C135C133D1B3F1B24
:105358003F1B5F137E1B7F1B5F1B3F139F137F1336
:105368005E23BC539FF7FCFFFFFFFFFFDEFFFFFF3D
:10537800FFF77BF70CCDAAFD2CFE30EEB7DEFFFF62
:10538800FFFFDEFFFFFFFFFFFFFFFFFFFFFFFFFF46
:10539800FFFFFFFFFFFFFFFFFFFFFFFFFFFFFFFF15
:1053A800FFFFFFFFFFFFFFFFFFFFFFFFFFFFFFFF05
:1053B800FFFFFFFFFFFFFFFFFFFFFFFFFFFFFFFFF5
:1053C800FFFFFFFFFFFFFFFFFFFFFFFFFFFFFFFFE5
:1053D800FFFFFFFFFFFFFFFFFFFFFFFFFFFFFFFFD5
:1053E800FFFFFFFFFFFFFFFFFFFFFFFFFFFFFFFFC5
:1053F800FFFFFFFFFFFFFFFFFFFFFFFFFFFFFFFFB5
:10540800FFFFFFFFFFFFFFFFFFEFFFFFFEFFFFFFB5
:10541800FFFFFFFFFFFFFFFFFEFFFEFFFFFF997487
:10542800B8129F137F1BFE223E235E235F237F1B40
:105438007F1B7F137F135F133F135F1B5F1B3F1B94
:105448005F1B7E1B3D0BDB02F90ADA02FC0A3F13E5
:105458005F135F137E1B5E233F233F1B5F1B5F1B96
:10546800FC1A1F85BFF7DDFFFFFFFFFFDEFFFFFF11
:10547800FFFFF8E64CD5AAFD2CFE30EEF8E6FFFF5C
:10548800DFFFDEFFFFFFFFFFFFFFFFFFFFFFFFFF65
:10549800FFFFFFFFFFFFFFFFFFFFFFFFFFFFFFFF14
:1054A800FFFFFFFFFFFFFFFFFFFFFFFFFFFFFFFF04
:1054B800FFFFFFFFFFFFFFFFFFFFFFFFFFFFFFFFF4
:1054C800FFFFFFFFFFFFFFFFFFFFFFFFFFFFFFFFE4
:1054D800FFFFFFFFFFFFFFFFFFFFFFFFFFFFFFFFD4
:1054E800FFFFFFFFFFFFFFFFFFFFFFFFFFFFFFFFC4
:1054F800FFFFFFFFFFFFFFFFFFFFFFFFFFFFFFFFB4
:10550800FFFFFFFFFFFFFFFFFEEFFEFFFDFFFEFFB8
:10551800FFFFFFFFFFFFFFFFFEFFDEFFDFFFDA7C7D
:10552800980A7F135F1B3E237E1B7E1B7E1B5E1B20
:105538007F1B7F1B7F1B7F1B5F1B3F1B5F1B9F23EB
:105548009F1B5D13FA02B9021A0B5C139F1B7F1392
:105558007F0B7F137F135E1B5F235F235F1B7E1B05
:105568005C23DF95FFF7FEFFFFFFFFFFDFFFFFFF75
:10557800FEFFD6EE0BCDCBFD2DFE10E63AE7FFF78A
:10558800DFFFDEFFFFFFFFFFFFFFFFFFFFFFFFFF64
:10559800FFFFFFFFFFFFFFFFFFFFFFFFFFFFFFFF13
:1055A800FFFFFFFFFFFFFFFFFFFFFFFFFFFFFFFF03
:1055B800FFFFFFFFFFFFFFFFFFFFFFFFFFFFFFFFF3
:1055C800FFFFFFFFFFFFFFFFFFFFFFFFFFFFFFFFE3
:1055D800FFFFFFFFFFFFFFFFFFFFFFFFFFFFFFFFD3
:1055E800FFFFFFFFFFFFFFFFFFFFFFFFFFFFFFFFC3
:1055F800FFFFFFFFFFFFFFFFFFFFFFFFFFFFFFFFB3
:10560800FFFFFFFFFFFFFFFFFEF7FEFFFEFFFFFFAD
:10561800FFFFFFFFFFFFFFFFFFFFDEFFFFFF3B85F1
:10562800980A7F0B7F137E235F0B7F139F137F1BCB
:105638005E1B5E1B5E1B7E1B7F1B9F1B7F133D0B30
:10564800FB02FB02FB021A03DA021B033D033E03C3
:105658007F0B9F137E135E1B7F1B7F1B7E139D1387
:10566800DA2BFFAEFFF7FEFFFFFFFFFFFFFFFEFF96
:10567800DCFF74E60BCDECFD4DFEF0E57BF7FFF7A4
:10568800FFFFFEFFFFFFFFFFFFFFFFFFFFFFFFFF23
:10569800FFFFFFFFFFFFFFFFFFFFFFFFFFFFFFFF12
:1056A800FFFFFFFFFFFFFFFFFFFFFFFFFFFFFFFF02
:1056B800FFFFFFFFFFFFFFFFFFFFFFFFFFFFFFFFF2
:1056C800FFFFFFFFFFFFFFFFFFFFFFFFFFFFFFFFE2
:1056D800FFFFFFFFFFFFFFFFFFFFFFFFFFFFFFFFD2
:1056E800FFFFFFFFFFFFFFFFFFFFFFFFFFFFFFFFC2
:1056F800FFFFFFFFFFFFFFFFFFFFFFFFFFFFFFFFB2
:10570800FFFFFFFFFFFFFFFFFFF7FFFFFFFFFFFFA9
:10571800FFFFFFFFFFFFFFFFFFFFDFFFFFFF3B85EF
:10572800B8027F0B9F0B7D1B5F0B7F0B7F137F1BCB
:105738007F1B7E1B7E139F137F0B7F0B7F033E0314
:105748005E037E0B5E133D139E137E137E0B5E0B72
:105758007E135D135D137E1B7E139F137F0B9C13BB
:10576800383CBFC7FFF7DEFFFFFFFFFFFFFFFEFF6D
:10577800FBFFD0D52BD52DFE4EFEF1DDDCFFFFF76C
:10578800FFFFFEFFFFFFFFF7FFFFFFFFFFFFFFFF2A
:10579800FFFFFFFFFFFFFFFFFFFFFFFFFFFFFFFF11
:1057A800FFFFFFFFFFFFFFFFFFFFFFFFFFFFFFFF01
:1057B800FFFFFFFFFFFFFFFFFFFFFFFFFFFFFFFFF1
:1057C800FFFFFFFFFFFFFFFFFFFFFFFFFFFFFFFFE1
:1057D800FFFFFFFFFFFFFFFFFFFFFFFFFFFFFFFFD1
:1057E800FFFFFFFFFFFFFFFFFFFFFFFFFFFFFFFFC1
:1057F800FFFFFFFFFFFFFFFFFFFFFFFFFFFFFFFFB1
:10580800FFFFFFFFFFFFFFFFFFFFFFFFDFFFFFFFC0
:10581800FFFFFFFFFFFFFFFFFFFFDFF7FFF7FA7C48
:1058280097027E03DF0B9C139F137F135F135F1395
:105838007F139F137F137E0BDF13BF0B9F0BBF13C9
:105848009F1B5F1B5F235F2B7E1B5F1B3F133D135B
:105858003D1B5E235E235E237F139F135F0B5C1348
:105868007954FFE7FEFFDFFFFFFFFFFFFFF7FEFFB3
:10587800BAFF4DCD8CE52DFE4EFE11DEFDFFFFFF7C
:10588800FFFFFFFFFFFFFFF7FFFFFFFFFFFFFFFF28
:10589800FFFFFFFFFFFFFFFFFFFFFFFFFFFFFFFF10
:1058A800FFFFFFFFFFFFFFFFFFFFFFFFFFFFFFFF00
:1058B800FFFFFFFFFFFFFFFFFFFFFFFFFFFFFFFFF0
:1058C800FFFFFFFFFFFFFFFFFFFFFFFFFFFFFFFFE0
:1058D800FFFFFFFFFFFFFFFFFFFFFFFFFFFFFFFFD0
:1058E800FFFFFFFFFFFFFFFFFFFFFFFFFFFFFFFFC0
:1058F800FFFFFFFFFFFFFFFFFFFFFFFFFFFFFFFFB0
:10590800FFFFFFFFFFFFFFFFFFFFFFFFDFFFFFFFBF
:10591800FFFFFFFFFFFFFFFFFFFFFFF7FFF7B97470
:1059280096025E03BF0B9C135D137E139E1B9E1B8A
:105938007E1B5E1B7D1B7D1BFA0AF90AF912F91AF8
:10594800FA22FB22DB2ABB2A3C233E237F237F2328
:105958005F235F2B3F2B1E1B5E137F133F131D1B03
:10596800FB6CFFEFFEFFBFFFFFFFFFFFFFF7FDFF31
:1059780016FF0BCDEDED4EFE2FF652E6FDFFFFFFB5
:10598800FFFFFFFFFFFFFFF7FFFFFFFFFFFFFFFF27
:10599800FFFFFFFFFFFFFFFFFFFFFFFFFFFFFFFF0F
:1059A800FFFFFFFFFFFFFFFFFFFFFFFFFFFFFFFFFF
:1059B800FFFFFFFFFFFFFFFFFFFFFFFFFFFFFFFFEF
:1059C800FFFFFFFFFFFFFFFFFFFFFFFFFFFFFFFFDF
:1059D800FFFFFFFFFFFFFFFFFFFFFFFFFFFFFFFFCF
:1059E800FFFFFFFFFFFFFFFFFFFFFFFFFFFFFFFFBF
:1059F800FFFFFFFFFFFFFFFFFFFFFFFFFFFFFFFFAF
:105A0800FFFFFFFFFFFFFFFFFFFFDFFFDFFFFFFFDE
:105A1800FFFFFEFFFEFFFFFFFFF7FFF7FFFFD97C49
:105A2800770A1D035E037C137D137D137D131C13FE
:105A3800BA0A9912B822F72A195C996CD97CF984A8
:105A48003B8D9E951D855B6C79331B233F237F1B04
:105A58001E131F1B5F239F1B7D137F133F1BDD221C
:105A68005D85FFF7FEFFBFFFFFFFFFFFFFF7DDFFCD
:105A7800F1E52BD52EF64FF60FEE93EEFDFFFFFF67
:105A8800FFFFFFFFDFFFFFF7FFFFFFFFFFFFFFFF46
:105A9800FFFFFFFFFFFFFFFFFFFFFFFFFFFFFFFF0E
:105AA800FFFFFFFFFFFFFFFFFFFFFFFFFFFFFFFFFE
:105AB800FFFFFFFFFFFFFFFFFFFFFFFFFFFFFFFFEE
:105AC800FFFFFFFFFFFFFFFFFFFFFFFFFFFFFFFFDE
